{
  "_format": "hh-sol-artifact-1",
  "contractName": "ArtworksRegistry",
  "sourceName": "contracts/ArtworksRegistry.sol",
  "abi": [
    {
      "inputs": [
        {
          "internalType": "address",
          "name": "initialOwner",
          "type": "address"
        }
      ],
      "stateMutability": "nonpayable",
      "type": "constructor"
    },
    {
      "inputs": [
        {
          "internalType": "address",
          "name": "owner",
          "type": "address"
        }
      ],
      "name": "OwnableInvalidOwner",
      "type": "error"
    },
    {
      "inputs": [
        {
          "internalType": "address",
          "name": "account",
          "type": "address"
        }
      ],
      "name": "OwnableUnauthorizedAccount",
      "type": "error"
    },
    {
      "anonymous": false,
      "inputs": [
        {
          "indexed": true,
          "internalType": "address",
          "name": "artistAddress",
          "type": "address"
        },
        {
          "indexed": false,
          "internalType": "string",
          "name": "name",
          "type": "string"
        }
      ],
      "name": "ArtistRegistered",
      "type": "event"
    },
    {
      "anonymous": false,
      "inputs": [
        {
          "indexed": true,
          "internalType": "uint256",
          "name": "artworkId",
          "type": "uint256"
        },
        {
          "indexed": true,
          "internalType": "address",
          "name": "artist",
          "type": "address"
        },
        {
          "indexed": false,
          "internalType": "string",
          "name": "title",
          "type": "string"
        }
      ],
      "name": "ArtworkAdded",
      "type": "event"
    },
    {
      "anonymous": false,
      "inputs": [
        {
          "indexed": true,
          "internalType": "address",
          "name": "creator",
          "type": "address"
        },
        {
          "indexed": false,
          "internalType": "string",
          "name": "collectionName",
          "type": "string"
        },
        {
          "indexed": false,
          "internalType": "uint256",
          "name": "artworkId",
          "type": "uint256"
        }
      ],
      "name": "ArtworkAddedToCollection",
      "type": "event"
    },
    {
      "anonymous": false,
      "inputs": [
        {
          "indexed": true,
          "internalType": "uint256",
          "name": "artworkId",
          "type": "uint256"
        },
        {
          "indexed": true,
          "internalType": "address",
          "name": "listener",
          "type": "address"
        }
      ],
      "name": "ArtworkStreamed",
      "type": "event"
    },
    {
      "anonymous": false,
      "inputs": [
        {
          "indexed": true,
          "internalType": "address",
          "name": "creator",
          "type": "address"
        },
        {
          "indexed": false,
          "internalType": "string",
          "name": "name",
          "type": "string"
        }
      ],
      "name": "CollectionCreated",
      "type": "event"
    },
    {
      "anonymous": false,
      "inputs": [
        {
          "indexed": true,
          "internalType": "uint256",
          "name": "tokenId",
          "type": "uint256"
        },
        {
          "indexed": true,
          "internalType": "address",
          "name": "buyer",
          "type": "address"
        },
        {
          "indexed": false,
          "internalType": "uint256",
          "name": "price",
          "type": "uint256"
        }
      ],
      "name": "NFTMinted",
      "type": "event"
    },
    {
      "anonymous": false,
      "inputs": [
        {
          "indexed": true,
          "internalType": "address",
          "name": "previousOwner",
          "type": "address"
        },
        {
          "indexed": true,
          "internalType": "address",
          "name": "newOwner",
          "type": "address"
        }
      ],
      "name": "OwnershipTransferred",
      "type": "event"
    },
    {
      "inputs": [
        {
          "internalType": "string",
          "name": "_title",
          "type": "string"
        },
        {
          "internalType": "string",
          "name": "_pictureURI",
          "type": "string"
        },
        {
          "internalType": "uint256",
          "name": "_nftPrice",
          "type": "uint256"
        },
        {
          "internalType": "uint256",
          "name": "tokenId",
          "type": "uint256"
        }
      ],
      "name": "addArtwork",
      "outputs": [],
      "stateMutability": "nonpayable",
      "type": "function"
    },
    {
      "inputs": [
        {
          "internalType": "string",
          "name": "_collectionName",
          "type": "string"
        },
        {
          "internalType": "uint256",
          "name": "_artworkId",
          "type": "uint256"
        }
      ],
      "name": "addArtworkToCollection",
      "outputs": [],
      "stateMutability": "nonpayable",
      "type": "function"
    },
    {
      "inputs": [
        {
          "internalType": "address",
          "name": "",
          "type": "address"
        }
      ],
      "name": "artists",
      "outputs": [
        {
          "internalType": "string",
          "name": "name",
          "type": "string"
        },
        {
          "internalType": "address",
          "name": "walletAddress",
          "type": "address"
        }
      ],
      "stateMutability": "view",
      "type": "function"
    },
    {
      "inputs": [
        {
          "internalType": "uint256",
          "name": "",
          "type": "uint256"
        }
      ],
      "name": "artworks",
      "outputs": [
        {
          "internalType": "uint256",
          "name": "id",
          "type": "uint256"
        },
        {
          "internalType": "address",
          "name": "artist",
          "type": "address"
        },
        {
          "internalType": "string",
          "name": "title",
          "type": "string"
        },
        {
          "internalType": "string",
          "name": "pictureURI",
          "type": "string"
        },
        {
          "internalType": "uint256",
          "name": "nftPrice",
          "type": "uint256"
        },
        {
          "internalType": "bool",
          "name": "isNFTMinted",
          "type": "bool"
        }
      ],
      "stateMutability": "view",
      "type": "function"
    },
    {
      "inputs": [
        {
          "internalType": "address",
          "name": "",
          "type": "address"
        },
        {
          "internalType": "string",
          "name": "",
          "type": "string"
        }
      ],
      "name": "collections",
      "outputs": [
        {
          "internalType": "string",
          "name": "name",
          "type": "string"
        }
      ],
      "stateMutability": "view",
      "type": "function"
    },
    {
      "inputs": [
        {
          "internalType": "string",
          "name": "_name",
          "type": "string"
        }
      ],
      "name": "createCollection",
      "outputs": [],
      "stateMutability": "nonpayable",
      "type": "function"
    },
    {
      "inputs": [
        {
          "internalType": "address",
          "name": "_artist",
          "type": "address"
        }
      ],
      "name": "getArtist",
      "outputs": [
        {
          "internalType": "string",
          "name": "",
          "type": "string"
        }
      ],
      "stateMutability": "view",
      "type": "function"
    },
    {
      "inputs": [
        {
          "internalType": "uint256",
          "name": "_artworkId",
          "type": "uint256"
        }
      ],
      "name": "getArtworkDetails",
      "outputs": [
        {
          "components": [
            {
              "internalType": "uint256",
              "name": "id",
              "type": "uint256"
            },
            {
              "internalType": "address",
              "name": "artist",
              "type": "address"
            },
            {
              "internalType": "string",
              "name": "title",
              "type": "string"
            },
            {
              "internalType": "string",
              "name": "pictureURI",
              "type": "string"
            },
            {
              "internalType": "uint256",
              "name": "nftPrice",
              "type": "uint256"
            },
            {
              "internalType": "bool",
              "name": "isNFTMinted",
              "type": "bool"
            }
          ],
          "internalType": "struct ArtworksRegistry.Artwork",
          "name": "",
          "type": "tuple"
        }
      ],
      "stateMutability": "view",
      "type": "function"
    },
    {
      "inputs": [
        {
          "internalType": "address",
          "name": "_user",
          "type": "address"
        },
        {
          "internalType": "string",
          "name": "_collectionName",
          "type": "string"
        }
      ],
      "name": "getCollection",
      "outputs": [
        {
          "internalType": "uint256[]",
          "name": "",
          "type": "uint256[]"
        }
      ],
      "stateMutability": "view",
      "type": "function"
    },
    {
      "inputs": [],
      "name": "owner",
      "outputs": [
        {
          "internalType": "address",
          "name": "",
          "type": "address"
        }
      ],
      "stateMutability": "view",
      "type": "function"
    },
    {
      "inputs": [
        {
          "internalType": "string",
          "name": "_name",
          "type": "string"
        },
        {
          "internalType": "address",
          "name": "_walletAddress",
          "type": "address"
        }
      ],
      "name": "registerArtist",
      "outputs": [],
      "stateMutability": "nonpayable",
      "type": "function"
    },
    {
      "inputs": [],
      "name": "renounceOwnership",
      "outputs": [],
      "stateMutability": "nonpayable",
      "type": "function"
    },
    {
      "inputs": [
        {
          "internalType": "address",
          "name": "newOwner",
          "type": "address"
        }
      ],
      "name": "transferOwnership",
      "outputs": [],
      "stateMutability": "nonpayable",
      "type": "function"
    }
  ],
  "bytecode": "0x60806040523480156200001157600080fd5b50604051620016fd380380620016fd833981016040819052620000349162000148565b806001600160a01b0381166200006557604051631e4fbdf760e01b8152600060048201526024015b60405180910390fd5b620000708162000083565b506200007c81620000d3565b506200017a565b600080546001600160a01b038381166001600160a01b0319831681178455604051919092169283917f8be0079c531659141344cd1fd0a4f28419497f9722a3daafe3b4186f6b6457e09190a35050565b620000dd62000117565b6001600160a01b0381166200010957604051631e4fbdf760e01b8152600060048201526024016200005c565b620001148162000083565b50565b6000546001600160a01b03163314620001465760405163118cdaa760e01b81523360048201526024016200005c565b565b6000602082840312156200015b57600080fd5b81516001600160a01b03811681146200017357600080fd5b9392505050565b611573806200018a6000396000f3fe608060405234801561001057600080fd5b50600436106100df5760003560e01c8063715018a61161008c578063cb80e5a311610066578063cb80e5a3146101c4578063e6b2a4b5146101e4578063ed7472ac146101f7578063f2fde38b1461021757600080fd5b8063715018a61461018e5780638da5cb5b14610196578063b949c804146101b157600080fd5b80634b602673116100bd5780634b602673146101435780635755b9bc14610168578063600ef1571461017b57600080fd5b8063059dfe13146100e4578063069dab8f146100f957806335ef5ab814610123575b600080fd5b6100f76100f236600461102d565b61022a565b005b61010c610107366004611086565b6103c8565b60405161011a9291906110f8565b60405180910390f35b610136610131366004611123565b610475565b60405161011a9190611171565b610156610151366004611184565b61052f565b60405161011a9695949392919061119d565b6100f76101763660046111f2565b610682565b6100f7610189366004611240565b61079c565b6100f7610958565b6000546040516001600160a01b03909116815260200161011a565b6101366101bf366004611086565b61096c565b6101d76101d2366004611184565b610a18565b60405161011a9190611285565b6100f76101f23660046112fe565b610c37565b61020a610205366004611123565b610da3565b60405161011a9190611372565b6100f7610225366004611086565b610e30565b3360009081526002602052604081208054610244906113b6565b9050116102985760405162461bcd60e51b815260206004820152601560248201527f417274697374206e6f742072656769737465726564000000000000000000000060448201526064015b60405180910390fd5b336000908152600460205260409081902090516102b69083906113f0565b90815260405190819003602001902060010154156103165760405162461bcd60e51b815260206004820152601960248201527f436f6c6c656374696f6e20616c72656164792065786973747300000000000000604482015260640161028f565b604080518082018252828152815160008082526020808301855280840192909252338152600490915282902091519091906103529084906113f0565b9081526040519081900360200190208151819061036f908261145b565b5060208281015180516103889260018501920190610f2a565b50506040513391507f8e4bcca2ad16d1a64a4af282367cf028ff39722af579d5434027ae4d20a138ee906103bd908490611171565b60405180910390a250565b6002602052600090815260409020805481906103e3906113b6565b80601f016020809104026020016040519081016040528092919081815260200182805461040f906113b6565b801561045c5780601f106104315761010080835404028352916020019161045c565b820191906000526020600020905b81548152906001019060200180831161043f57829003601f168201915b505050600190930154919250506001600160a01b031682565b600460209081526000928352604090922081518083018401805192815290840192909301919091209152805481906104ac906113b6565b80601f01602080910402602001604051908101604052809291908181526020018280546104d8906113b6565b80156105255780601f106104fa57610100808354040283529160200191610525565b820191906000526020600020905b81548152906001019060200180831161050857829003601f168201915b5050505050905081565b60036020526000908152604090208054600182015460028301805492936001600160a01b0390921692610561906113b6565b80601f016020809104026020016040519081016040528092919081815260200182805461058d906113b6565b80156105da5780601f106105af576101008083540402835291602001916105da565b820191906000526020600020905b8154815290600101906020018083116105bd57829003601f168201915b5050505050908060030180546105ef906113b6565b80601f016020809104026020016040519081016040528092919081815260200182805461061b906113b6565b80156106685780601f1061063d57610100808354040283529160200191610668565b820191906000526020600020905b81548152906001019060200180831161064b57829003601f168201915b50505050600483015460059093015491929160ff16905086565b336000908152600260205260409020805461069c906113b6565b1590506106eb5760405162461bcd60e51b815260206004820152601960248201527f41727469737420616c7265616479207265676973746572656400000000000000604482015260640161028f565b6040805180820182528381526001600160a01b03831660208083019190915233600090815260029091529190912081518190610727908261145b565b50602091909101516001909101805473ffffffffffffffffffffffffffffffffffffffff19166001600160a01b0390921691909117905560405133907fd4fd8fd455c3fdfe36126d7de16d1f208385873ff3250ddf3bc9b833ba2b7e3590610790908590611171565b60405180910390a25050565b33600090815260026020526040812080546107b6906113b6565b9050116108055760405162461bcd60e51b815260206004820152601560248201527f417274697374206e6f7420726567697374657265640000000000000000000000604482015260640161028f565b60008181526003602052604081205490036108625760405162461bcd60e51b815260206004820152601660248201527f417274776f726b20646f6573206e6f7420657869737400000000000000000000604482015260640161028f565b33600090815260046020526040808220905161087f9085906113f0565b90815260405190819003602001902060010154116108df5760405162461bcd60e51b815260206004820152601960248201527f436f6c6c656374696f6e20646f6573206e6f7420657869737400000000000000604482015260640161028f565b336000908152600460205260409081902090516108fd9084906113f0565b90815260405190819003602090810182206001908101805491820181556000908152919091200182905533907fc2ba05926456b9321560d17f38e3e0d1c33da000ef361f758e4a161bb27ac8e790610790908590859061151b565b610960610e87565b61096a6000610ecd565b565b6001600160a01b0381166000908152600260205260409020805460609190610993906113b6565b80601f01602080910402602001604051908101604052809291908181526020018280546109bf906113b6565b8015610a0c5780601f106109e157610100808354040283529160200191610a0c565b820191906000526020600020905b8154815290600101906020018083116109ef57829003601f168201915b50505050509050919050565b610a5c6040518060c001604052806000815260200160006001600160a01b031681526020016060815260200160608152602001600081526020016000151581525090565b6000828152600360205260408120549003610ab95760405162461bcd60e51b815260206004820152601660248201527f417274776f726b20646f6573206e6f7420657869737400000000000000000000604482015260640161028f565b600082815260036020908152604091829020825160c0810184528154815260018201546001600160a01b0316928101929092526002810180549293919291840191610b03906113b6565b80601f0160208091040260200160405190810160405280929190818152602001828054610b2f906113b6565b8015610b7c5780601f10610b5157610100808354040283529160200191610b7c565b820191906000526020600020905b815481529060010190602001808311610b5f57829003601f168201915b50505050508152602001600382018054610b95906113b6565b80601f0160208091040260200160405190810160405280929190818152602001828054610bc1906113b6565b8015610c0e5780601f10610be357610100808354040283529160200191610c0e565b820191906000526020600020905b815481529060010190602001808311610bf157829003601f168201915b50505091835250506004820154602082015260059091015460ff16151560409091015292915050565b3360009081526002602052604081208054610c51906113b6565b905011610ca05760405162461bcd60e51b815260206004820152601560248201527f417274697374206e6f7420726567697374657265640000000000000000000000604482015260640161028f565b6040805160c0810182528281523360208083019182528284018881526060840188905260808401879052600060a08501819052868152600390925293902082518155905160018201805473ffffffffffffffffffffffffffffffffffffffff19166001600160a01b0390921691909117905591518392906002820190610d26908261145b565b5060608201516003820190610d3b908261145b565b506080820151600482015560a0909101516005909101805460ff1916911515919091179055604051339082907f45c2ea6921d542f843f56f282a6af95b9fb4134abb789208c827193b3025971c90610d94908990611171565b60405180910390a35050505050565b6001600160a01b03821660009081526004602052604090819020905160609190610dce9084906113f0565b9081526040805191829003602090810183206001018054808302850183019093528284529190830182828015610e2357602002820191906000526020600020905b815481526020019060010190808311610e0f575b5050505050905092915050565b610e38610e87565b6001600160a01b038116610e7b576040517f1e4fbdf70000000000000000000000000000000000000000000000000000000081526000600482015260240161028f565b610e8481610ecd565b50565b6000546001600160a01b0316331461096a576040517f118cdaa700000000000000000000000000000000000000000000000000000000815233600482015260240161028f565b600080546001600160a01b0383811673ffffffffffffffffffffffffffffffffffffffff19831681178455604051919092169283917f8be0079c531659141344cd1fd0a4f28419497f9722a3daafe3b4186f6b6457e09190a35050565b828054828255906000526020600020908101928215610f65579160200282015b82811115610f65578251825591602001919060010190610f4a565b50610f71929150610f75565b5090565b5b80821115610f715760008155600101610f76565b634e487b7160e01b600052604160045260246000fd5b600082601f830112610fb157600080fd5b813567ffffffffffffffff80821115610fcc57610fcc610f8a565b604051601f8301601f19908116603f01168101908282118183101715610ff457610ff4610f8a565b8160405283815286602085880101111561100d57600080fd5b836020870160208301376000602085830101528094505050505092915050565b60006020828403121561103f57600080fd5b813567ffffffffffffffff81111561105657600080fd5b61106284828501610fa0565b949350505050565b80356001600160a01b038116811461108157600080fd5b919050565b60006020828403121561109857600080fd5b6110a18261106a565b9392505050565b60005b838110156110c35781810151838201526020016110ab565b50506000910152565b600081518084526110e48160208601602086016110a8565b601f01601f19169290920160200192915050565b60408152600061110b60408301856110cc565b90506001600160a01b03831660208301529392505050565b6000806040838503121561113657600080fd5b61113f8361106a565b9150602083013567ffffffffffffffff81111561115b57600080fd5b61116785828601610fa0565b9150509250929050565b6020815260006110a160208301846110cc565b60006020828403121561119657600080fd5b5035919050565b8681526001600160a01b038616602082015260c0604082015260006111c560c08301876110cc565b82810360608401526111d781876110cc565b6080840195909552505090151560a090910152949350505050565b6000806040838503121561120557600080fd5b823567ffffffffffffffff81111561121c57600080fd5b61122885828601610fa0565b9250506112376020840161106a565b90509250929050565b6000806040838503121561125357600080fd5b823567ffffffffffffffff81111561126a57600080fd5b61127685828601610fa0565b95602094909401359450505050565b60208152815160208201526001600160a01b0360208301511660408201526000604083015160c060608401526112be60e08401826110cc565b90506060840151601f198483030160808501526112db82826110cc565b915050608084015160a084015260a0840151151560c08401528091505092915050565b6000806000806080858703121561131457600080fd5b843567ffffffffffffffff8082111561132c57600080fd5b61133888838901610fa0565b9550602087013591508082111561134e57600080fd5b5061135b87828801610fa0565b949794965050505060408301359260600135919050565b6020808252825182820181905260009190848201906040850190845b818110156113aa5783518352928401929184019160010161138e565b50909695505050505050565b600181811c908216806113ca57607f821691505b6020821081036113ea57634e487b7160e01b600052602260045260246000fd5b50919050565b600082516114028184602087016110a8565b9190910192915050565b601f82111561145657600081815260208120601f850160051c810160208610156114335750805b601f850160051c820191505b818110156114525782815560010161143f565b5050505b505050565b815167ffffffffffffffff81111561147557611475610f8a565b6114898161148384546113b6565b8461140c565b602080601f8311600181146114be57600084156114a65750858301515b600019600386901b1c1916600185901b178555611452565b600085815260208120601f198616915b828110156114ed578886015182559484019460019091019084016114ce565b508582101561150b5787850151600019600388901b60f8161c191681555b5050505050600190811b01905550565b60408152600061152e60408301856110cc565b9050826020830152939250505056fea26469706673582212204b1dac83f84b4fb166fd9a4504a30e23828309358a1c72fab1742a154f9c237a64736f6c63430008140033",
  "linkReferences": {},
  "deployedLinkReferences": {}
}