{
  "_format": "hh-sol-artifact-1",
  "contractName": "ArtworkERC721NFT",
  "sourceName": "contracts/ArtworkERC721NFT.sol",
  "abi": [
    {
      "inputs": [
        {
          "internalType": "string",
          "name": "name",
          "type": "string"
        },
        {
          "internalType": "string",
          "name": "symbol",
          "type": "string"
        },
        {
          "internalType": "address",
          "name": "_artist",
          "type": "address"
        }
      ],
      "stateMutability": "nonpayable",
      "type": "constructor"
    },
    {
      "inputs": [
        {
          "internalType": "address",
          "name": "sender",
          "type": "address"
        },
        {
          "internalType": "uint256",
          "name": "tokenId",
          "type": "uint256"
        },
        {
          "internalType": "address",
          "name": "owner",
          "type": "address"
        }
      ],
      "name": "ERC721IncorrectOwner",
      "type": "error"
    },
    {
      "inputs": [
        {
          "internalType": "address",
          "name": "operator",
          "type": "address"
        },
        {
          "internalType": "uint256",
          "name": "tokenId",
          "type": "uint256"
        }
      ],
      "name": "ERC721InsufficientApproval",
      "type": "error"
    },
    {
      "inputs": [
        {
          "internalType": "address",
          "name": "approver",
          "type": "address"
        }
      ],
      "name": "ERC721InvalidApprover",
      "type": "error"
    },
    {
      "inputs": [
        {
          "internalType": "address",
          "name": "operator",
          "type": "address"
        }
      ],
      "name": "ERC721InvalidOperator",
      "type": "error"
    },
    {
      "inputs": [
        {
          "internalType": "address",
          "name": "owner",
          "type": "address"
        }
      ],
      "name": "ERC721InvalidOwner",
      "type": "error"
    },
    {
      "inputs": [
        {
          "internalType": "address",
          "name": "receiver",
          "type": "address"
        }
      ],
      "name": "ERC721InvalidReceiver",
      "type": "error"
    },
    {
      "inputs": [
        {
          "internalType": "address",
          "name": "sender",
          "type": "address"
        }
      ],
      "name": "ERC721InvalidSender",
      "type": "error"
    },
    {
      "inputs": [
        {
          "internalType": "uint256",
          "name": "tokenId",
          "type": "uint256"
        }
      ],
      "name": "ERC721NonexistentToken",
      "type": "error"
    },
    {
      "inputs": [
        {
          "internalType": "address",
          "name": "owner",
          "type": "address"
        }
      ],
      "name": "OwnableInvalidOwner",
      "type": "error"
    },
    {
      "inputs": [
        {
          "internalType": "address",
          "name": "account",
          "type": "address"
        }
      ],
      "name": "OwnableUnauthorizedAccount",
      "type": "error"
    },
    {
      "anonymous": false,
      "inputs": [
        {
          "indexed": true,
          "internalType": "address",
          "name": "owner",
          "type": "address"
        },
        {
          "indexed": true,
          "internalType": "address",
          "name": "approved",
          "type": "address"
        },
        {
          "indexed": true,
          "internalType": "uint256",
          "name": "tokenId",
          "type": "uint256"
        }
      ],
      "name": "Approval",
      "type": "event"
    },
    {
      "anonymous": false,
      "inputs": [
        {
          "indexed": true,
          "internalType": "address",
          "name": "owner",
          "type": "address"
        },
        {
          "indexed": true,
          "internalType": "address",
          "name": "operator",
          "type": "address"
        },
        {
          "indexed": false,
          "internalType": "bool",
          "name": "approved",
          "type": "bool"
        }
      ],
      "name": "ApprovalForAll",
      "type": "event"
    },
    {
      "anonymous": false,
      "inputs": [
        {
          "indexed": false,
          "internalType": "uint256",
          "name": "_fromTokenId",
          "type": "uint256"
        },
        {
          "indexed": false,
          "internalType": "uint256",
          "name": "_toTokenId",
          "type": "uint256"
        }
      ],
      "name": "BatchMetadataUpdate",
      "type": "event"
    },
    {
      "anonymous": false,
      "inputs": [
        {
          "indexed": false,
          "internalType": "uint256",
          "name": "_tokenId",
          "type": "uint256"
        }
      ],
      "name": "MetadataUpdate",
      "type": "event"
    },
    {
      "anonymous": false,
      "inputs": [
        {
          "indexed": true,
          "internalType": "uint256",
          "name": "tokenId",
          "type": "uint256"
        },
        {
          "indexed": true,
          "internalType": "address",
          "name": "buyer",
          "type": "address"
        },
        {
          "indexed": false,
          "internalType": "uint256",
          "name": "price",
          "type": "uint256"
        }
      ],
      "name": "NFTMinted",
      "type": "event"
    },
    {
      "anonymous": false,
      "inputs": [
        {
          "indexed": true,
          "internalType": "address",
          "name": "previousOwner",
          "type": "address"
        },
        {
          "indexed": true,
          "internalType": "address",
          "name": "newOwner",
          "type": "address"
        }
      ],
      "name": "OwnershipTransferred",
      "type": "event"
    },
    {
      "anonymous": false,
      "inputs": [
        {
          "indexed": true,
          "internalType": "uint256",
          "name": "tokenId",
          "type": "uint256"
        },
        {
          "indexed": false,
          "internalType": "uint256",
          "name": "amount",
          "type": "uint256"
        }
      ],
      "name": "RoyaltyCollected",
      "type": "event"
    },
    {
      "anonymous": false,
      "inputs": [
        {
          "indexed": true,
          "internalType": "address",
          "name": "artist",
          "type": "address"
        },
        {
          "indexed": false,
          "internalType": "uint256",
          "name": "amount",
          "type": "uint256"
        }
      ],
      "name": "RoyaltyPaid",
      "type": "event"
    },
    {
      "anonymous": false,
      "inputs": [
        {
          "indexed": true,
          "internalType": "address",
          "name": "from",
          "type": "address"
        },
        {
          "indexed": true,
          "internalType": "address",
          "name": "to",
          "type": "address"
        },
        {
          "indexed": true,
          "internalType": "uint256",
          "name": "tokenId",
          "type": "uint256"
        }
      ],
      "name": "Transfer",
      "type": "event"
    },
    {
      "inputs": [],
      "name": "ROYALTY_PERCENTAGE",
      "outputs": [
        {
          "internalType": "uint256",
          "name": "",
          "type": "uint256"
        }
      ],
      "stateMutability": "view",
      "type": "function"
    },
    {
      "inputs": [
        {
          "internalType": "address",
          "name": "to",
          "type": "address"
        },
        {
          "internalType": "uint256",
          "name": "tokenId",
          "type": "uint256"
        }
      ],
      "name": "approve",
      "outputs": [],
      "stateMutability": "nonpayable",
      "type": "function"
    },
    {
      "inputs": [],
      "name": "artist",
      "outputs": [
        {
          "internalType": "address",
          "name": "",
          "type": "address"
        }
      ],
      "stateMutability": "view",
      "type": "function"
    },
    {
      "inputs": [
        {
          "internalType": "address",
          "name": "owner",
          "type": "address"
        }
      ],
      "name": "balanceOf",
      "outputs": [
        {
          "internalType": "uint256",
          "name": "",
          "type": "uint256"
        }
      ],
      "stateMutability": "view",
      "type": "function"
    },
    {
      "inputs": [
        {
          "internalType": "uint256",
          "name": "tokenId",
          "type": "uint256"
        }
      ],
      "name": "getApproved",
      "outputs": [
        {
          "internalType": "address",
          "name": "",
          "type": "address"
        }
      ],
      "stateMutability": "view",
      "type": "function"
    },
    {
      "inputs": [
        {
          "internalType": "address",
          "name": "owner",
          "type": "address"
        },
        {
          "internalType": "address",
          "name": "operator",
          "type": "address"
        }
      ],
      "name": "isApprovedForAll",
      "outputs": [
        {
          "internalType": "bool",
          "name": "",
          "type": "bool"
        }
      ],
      "stateMutability": "view",
      "type": "function"
    },
    {
      "inputs": [
        {
          "internalType": "address[]",
          "name": "recipients",
          "type": "address[]"
        }
      ],
      "name": "mintBatch",
      "outputs": [],
      "stateMutability": "nonpayable",
      "type": "function"
    },
    {
      "inputs": [
        {
          "internalType": "string",
          "name": "_tokenURI",
          "type": "string"
        }
      ],
      "name": "mintNFT",
      "outputs": [
        {
          "internalType": "uint256",
          "name": "",
          "type": "uint256"
        }
      ],
      "stateMutability": "payable",
      "type": "function"
    },
    {
      "inputs": [],
      "name": "name",
      "outputs": [
        {
          "internalType": "string",
          "name": "",
          "type": "string"
        }
      ],
      "stateMutability": "view",
      "type": "function"
    },
    {
      "inputs": [],
      "name": "owner",
      "outputs": [
        {
          "internalType": "address",
          "name": "",
          "type": "address"
        }
      ],
      "stateMutability": "view",
      "type": "function"
    },
    {
      "inputs": [
        {
          "internalType": "uint256",
          "name": "tokenId",
          "type": "uint256"
        }
      ],
      "name": "ownerOf",
      "outputs": [
        {
          "internalType": "address",
          "name": "",
          "type": "address"
        }
      ],
      "stateMutability": "view",
      "type": "function"
    },
    {
      "inputs": [],
      "name": "renounceOwnership",
      "outputs": [],
      "stateMutability": "nonpayable",
      "type": "function"
    },
    {
      "inputs": [
        {
          "internalType": "uint256",
          "name": "",
          "type": "uint256"
        },
        {
          "internalType": "uint256",
          "name": "value",
          "type": "uint256"
        }
      ],
      "name": "royaltyInfo",
      "outputs": [
        {
          "internalType": "address",
          "name": "receiver",
          "type": "address"
        },
        {
          "internalType": "uint256",
          "name": "royaltyAmount",
          "type": "uint256"
        }
      ],
      "stateMutability": "view",
      "type": "function"
    },
    {
      "inputs": [
        {
          "internalType": "address",
          "name": "from",
          "type": "address"
        },
        {
          "internalType": "address",
          "name": "to",
          "type": "address"
        },
        {
          "internalType": "uint256",
          "name": "tokenId",
          "type": "uint256"
        }
      ],
      "name": "safeTransferFrom",
      "outputs": [],
      "stateMutability": "nonpayable",
      "type": "function"
    },
    {
      "inputs": [
        {
          "internalType": "address",
          "name": "from",
          "type": "address"
        },
        {
          "internalType": "address",
          "name": "to",
          "type": "address"
        },
        {
          "internalType": "uint256",
          "name": "tokenId",
          "type": "uint256"
        },
        {
          "internalType": "bytes",
          "name": "data",
          "type": "bytes"
        }
      ],
      "name": "safeTransferFrom",
      "outputs": [],
      "stateMutability": "nonpayable",
      "type": "function"
    },
    {
      "inputs": [
        {
          "internalType": "address",
          "name": "operator",
          "type": "address"
        },
        {
          "internalType": "bool",
          "name": "approved",
          "type": "bool"
        }
      ],
      "name": "setApprovalForAll",
      "outputs": [],
      "stateMutability": "nonpayable",
      "type": "function"
    },
    {
      "inputs": [
        {
          "internalType": "address",
          "name": "recipient",
          "type": "address"
        },
        {
          "internalType": "uint256",
          "name": "value",
          "type": "uint256"
        }
      ],
      "name": "setRoyalties",
      "outputs": [],
      "stateMutability": "nonpayable",
      "type": "function"
    },
    {
      "inputs": [
        {
          "internalType": "bytes4",
          "name": "interfaceId",
          "type": "bytes4"
        }
      ],
      "name": "supportsInterface",
      "outputs": [
        {
          "internalType": "bool",
          "name": "",
          "type": "bool"
        }
      ],
      "stateMutability": "view",
      "type": "function"
    },
    {
      "inputs": [],
      "name": "symbol",
      "outputs": [
        {
          "internalType": "string",
          "name": "",
          "type": "string"
        }
      ],
      "stateMutability": "view",
      "type": "function"
    },
    {
      "inputs": [
        {
          "internalType": "uint256",
          "name": "tokenId",
          "type": "uint256"
        }
      ],
      "name": "tokenURI",
      "outputs": [
        {
          "internalType": "string",
          "name": "",
          "type": "string"
        }
      ],
      "stateMutability": "view",
      "type": "function"
    },
    {
      "inputs": [
        {
          "internalType": "address",
          "name": "from",
          "type": "address"
        },
        {
          "internalType": "address",
          "name": "to",
          "type": "address"
        },
        {
          "internalType": "uint256",
          "name": "tokenId",
          "type": "uint256"
        }
      ],
      "name": "transferFrom",
      "outputs": [],
      "stateMutability": "nonpayable",
      "type": "function"
    },
    {
      "inputs": [
        {
          "internalType": "address",
          "name": "newOwner",
          "type": "address"
        }
      ],
      "name": "transferOwnership",
      "outputs": [],
      "stateMutability": "nonpayable",
      "type": "function"
    }
  ],
  "bytecode": "0x60806040523480156200001157600080fd5b5060405162001f0138038062001f01833981016040819052620000349162000243565b828233806200005e57604051631e4fbdf760e01b8152600060048201526024015b60405180910390fd5b6200006981620000b9565b5060016200007883826200035f565b5060026200008782826200035f565b5050600a80546001600160a01b0319166001600160a01b03841617905550620000b08162000109565b5050506200042b565b600080546001600160a01b038381166001600160a01b0319831681178455604051919092169283917f8be0079c531659141344cd1fd0a4f28419497f9722a3daafe3b4186f6b6457e09190a35050565b620001136200014d565b6001600160a01b0381166200013f57604051631e4fbdf760e01b81526000600482015260240162000055565b6200014a81620000b9565b50565b6000546001600160a01b031633146200017c5760405163118cdaa760e01b815233600482015260240162000055565b565b634e487b7160e01b600052604160045260246000fd5b600082601f830112620001a657600080fd5b81516001600160401b0380821115620001c357620001c36200017e565b604051601f8301601f19908116603f01168101908282118183101715620001ee57620001ee6200017e565b816040528381526020925086838588010111156200020b57600080fd5b600091505b838210156200022f578582018301518183018401529082019062000210565b600093810190920192909252949350505050565b6000806000606084860312156200025957600080fd5b83516001600160401b03808211156200027157600080fd5b6200027f8783880162000194565b945060208601519150808211156200029657600080fd5b50620002a58682870162000194565b604086015190935090506001600160a01b0381168114620002c557600080fd5b809150509250925092565b600181811c90821680620002e557607f821691505b6020821081036200030657634e487b7160e01b600052602260045260246000fd5b50919050565b601f8211156200035a57600081815260208120601f850160051c81016020861015620003355750805b601f850160051c820191505b81811015620003565782815560010162000341565b5050505b505050565b81516001600160401b038111156200037b576200037b6200017e565b62000393816200038c8454620002d0565b846200030c565b602080601f831160018114620003cb5760008415620003b25750858301515b600019600386901b1c1916600185901b17855562000356565b600085815260208120601f198616915b82811015620003fc57888601518255948401946001909101908401620003db565b50858210156200041b5787850151600019600388901b60f8161c191681555b5050505050600190811b01905550565b611ac6806200043b6000396000f3fe6080604052600436106101755760003560e01c8063715018a6116100cb578063a22cb4651161007f578063e985e9c511610059578063e985e9c514610415578063f2fde38b1461045e578063fb37e8831461047e57600080fd5b8063a22cb465146103b5578063b88d4fde146103d5578063c87b56dd146103f557600080fd5b80638da5cb5b116100b05780638da5cb5b14610362578063927f59ba1461038057806395d89b41146103a057600080fd5b8063715018a61461032d5780638c7ea24b1461034257600080fd5b80632a55205a1161012d578063463b08db11610107578063463b08db146102ca5780636352211e146102ed57806370a082311461030d57600080fd5b80632a55205a1461024b57806342842e0e1461028a57806343bc1612146102aa57600080fd5b8063081812fc1161015e578063081812fc146101d1578063095ea7b31461020957806323b872dd1461022b57600080fd5b806301ffc9a71461017a57806306fdde03146101af575b600080fd5b34801561018657600080fd5b5061019a61019536600461146f565b610491565b60405190151581526020015b60405180910390f35b3480156101bb57600080fd5b506101c46104a2565b6040516101a691906114dc565b3480156101dd57600080fd5b506101f16101ec3660046114ef565b610534565b6040516001600160a01b0390911681526020016101a6565b34801561021557600080fd5b5061022961022436600461151f565b61055d565b005b34801561023757600080fd5b50610229610246366004611549565b61056c565b34801561025757600080fd5b5061026b610266366004611585565b610615565b604080516001600160a01b0390931683526020830191909152016101a6565b34801561029657600080fd5b506102296102a5366004611549565b61066a565b3480156102b657600080fd5b50600a546101f1906001600160a01b031681565b3480156102d657600080fd5b506102df601e81565b6040519081526020016101a6565b3480156102f957600080fd5b506101f16103083660046114ef565b61068a565b34801561031957600080fd5b506102df6103283660046115a7565b610695565b34801561033957600080fd5b506102296106f6565b34801561034e57600080fd5b5061022961035d36600461151f565b61070a565b34801561036e57600080fd5b506000546001600160a01b03166101f1565b34801561038c57600080fd5b5061022961039b366004611609565b61071c565b3480156103ac57600080fd5b506101c461078d565b3480156103c157600080fd5b506102296103d03660046116b6565b61079c565b3480156103e157600080fd5b506102296103f036600461174a565b6107a7565b34801561040157600080fd5b506101c46104103660046114ef565b6107be565b34801561042157600080fd5b5061019a6104303660046117c6565b6001600160a01b03918216600090815260066020908152604080832093909416825291909152205460ff1690565b34801561046a57600080fd5b506102296104793660046115a7565b6108cf565b6102df61048c3660046117f9565b610926565b600061049c82610963565b92915050565b6060600180546104b190611842565b80601f01602080910402602001604051908101604052809291908181526020018280546104dd90611842565b801561052a5780601f106104ff5761010080835404028352916020019161052a565b820191906000526020600020905b81548152906001019060200180831161050d57829003601f168201915b5050505050905090565b600061053f826109a1565b506000828152600560205260409020546001600160a01b031661049c565b6105688282336109da565b5050565b6001600160a01b03821661059b57604051633250574960e11b8152600060048201526024015b60405180910390fd5b60006105a88383336109e7565b9050836001600160a01b0316816001600160a01b03161461060f576040517f64283d7b0000000000000000000000000000000000000000000000000000000081526001600160a01b0380861660048301526024820184905282166044820152606401610592565b50505050565b604080518082019091526008546001600160a01b038116808352600160a01b90910462ffffff16602083018190529091600091612710906106569086611892565b61066091906118a9565b9150509250929050565b610685838383604051806020016040528060008152506107a7565b505050565b600061049c826109a1565b60006001600160a01b0382166106da576040517f89c62b6400000000000000000000000000000000000000000000000000000000815260006004820152602401610592565b506001600160a01b031660009081526004602052604090205490565b6106fe610aed565b6107086000610b33565b565b610712610aed565b6105688282610b90565b610724610aed565b60095460005b825181101561068557610756838281518110610748576107486118cb565b602002602001015183610c5e565b81610760816118e1565b600980549194509091506000610775836118e1565b91905055508080610785906118e1565b91505061072a565b6060600280546104b190611842565b610568338383610c78565b6107b284848461056c565b61060f84848484610d30565b60606107c9826109a1565b50600082815260076020526040812080546107e390611842565b80601f016020809104026020016040519081016040528092919081815260200182805461080f90611842565b801561085c5780601f106108315761010080835404028352916020019161085c565b820191906000526020600020905b81548152906001019060200180831161083f57829003601f168201915b50505050509050600061087a60408051602081019091526000815290565b9050805160000361088c575092915050565b8151156108be5780826040516020016108a69291906118fa565b60405160208183030381529060405292505050919050565b6108c784610e59565b949350505050565b6108d7610aed565b6001600160a01b03811661091a576040517f1e4fbdf700000000000000000000000000000000000000000000000000000000815260006004820152602401610592565b61092381610b33565b50565b6000610930610aed565b600980549081906000610942836118e1565b91905055506109513382610c5e565b61095b8184610ece565b90505b919050565b60006001600160e01b031982167f2a55205a00000000000000000000000000000000000000000000000000000000148061049c575061049c82610f1e565b6000818152600360205260408120546001600160a01b03168061095b57604051637e27328960e01b815260048101849052602401610592565b6106858383836001610f5c565b6000828152600360205260408120546001600160a01b0390811690831615610a1457610a148184866110a7565b6001600160a01b03811615610a5257610a31600085600080610f5c565b6001600160a01b038116600090815260046020526040902080546000190190555b6001600160a01b03851615610a81576001600160a01b0385166000908152600460205260409020805460010190555b600084815260036020526040808220805473ffffffffffffffffffffffffffffffffffffffff19166001600160a01b0389811691821790925591518793918516917fddf252ad1be2c89b69c2b068fc378daa952ba7f163c4a11628f55a4df523b3ef91a4949350505050565b6000546001600160a01b03163314610708576040517f118cdaa7000000000000000000000000000000000000000000000000000000008152336004820152602401610592565b600080546001600160a01b0383811673ffffffffffffffffffffffffffffffffffffffff19831681178455604051919092169283917f8be0079c531659141344cd1fd0a4f28419497f9722a3daafe3b4186f6b6457e09190a35050565b612710811115610bfc576040517f08c379a000000000000000000000000000000000000000000000000000000000815260206004820152601a60248201527f45524332393831526f79616c746965733a20546f6f20686967680000000000006044820152606401610592565b604080518082019091526001600160a01b0390921680835262ffffff909116602090920182905260088054600160a01b9093027fffffffffffffffffff0000000000000000000000000000000000000000000000909316909117919091179055565b610568828260405180602001604052806000815250611124565b6001600160a01b038216610cc3576040517f5b08ba180000000000000000000000000000000000000000000000000000000081526001600160a01b0383166004820152602401610592565b6001600160a01b03838116600081815260066020908152604080832094871680845294825291829020805460ff191686151590811790915591519182527f17307eab39ab6107e8899845ad3d59bd9653f200f220920489ca2b5937696c31910160405180910390a3505050565b6001600160a01b0383163b1561060f57604051630a85bd0160e11b81526001600160a01b0384169063150b7a0290610d72903390889087908790600401611929565b6020604051808303816000875af1925050508015610dad575060408051601f3d908101601f19168201909252610daa91810190611965565b60015b610e16573d808015610ddb576040519150601f19603f3d011682016040523d82523d6000602084013e610de0565b606091505b508051600003610e0e57604051633250574960e11b81526001600160a01b0385166004820152602401610592565b805181602001fd5b6001600160e01b03198116630a85bd0160e11b14610e5257604051633250574960e11b81526001600160a01b0385166004820152602401610592565b5050505050565b6060610e64826109a1565b506000610e7c60408051602081019091526000815290565b90506000815111610e9c5760405180602001604052806000815250610ec7565b80610ea68461113b565b604051602001610eb79291906118fa565b6040516020818303038152906040525b9392505050565b6000828152600760205260409020610ee682826119d0565b506040518281527ff8e1a15aba9398e019f0b49df1a4fde98ee17ae345cb5f6b5e2c27f5033e8ce79060200160405180910390a15050565b60006001600160e01b031982167f4906490600000000000000000000000000000000000000000000000000000000148061049c575061049c826111db565b8080610f7057506001600160a01b03821615155b1561106a576000610f80846109a1565b90506001600160a01b03831615801590610fac5750826001600160a01b0316816001600160a01b031614155b8015610fde57506001600160a01b0380821660009081526006602090815260408083209387168352929052205460ff16155b15611020576040517fa9fbf51f0000000000000000000000000000000000000000000000000000000081526001600160a01b0384166004820152602401610592565b81156110685783856001600160a01b0316826001600160a01b03167f8c5be1e5ebec7d5bd14f71427d1e84f3dd0314c0f7b2291e5b200ac8c7c3b92560405160405180910390a45b505b50506000908152600560205260409020805473ffffffffffffffffffffffffffffffffffffffff19166001600160a01b0392909216919091179055565b6110b2838383611276565b610685576001600160a01b0383166110e057604051637e27328960e01b815260048101829052602401610592565b6040517f177e802f0000000000000000000000000000000000000000000000000000000081526001600160a01b038316600482015260248101829052604401610592565b61112e83836112f9565b6106856000848484610d30565b6060600061114883611377565b600101905060008167ffffffffffffffff811115611168576111686115c2565b6040519080825280601f01601f191660200182016040528015611192576020820181803683370190505b5090508181016020015b600019017f3031323334353637383961626364656600000000000000000000000000000000600a86061a8153600a850494508461119c57509392505050565b60006001600160e01b031982167f80ac58cd00000000000000000000000000000000000000000000000000000000148061123e57506001600160e01b031982167f5b5e139f00000000000000000000000000000000000000000000000000000000145b8061049c57507f01ffc9a7000000000000000000000000000000000000000000000000000000006001600160e01b031983161461049c565b60006001600160a01b038316158015906108c75750826001600160a01b0316846001600160a01b031614806112d057506001600160a01b0380851660009081526006602090815260408083209387168352929052205460ff165b806108c75750506000908152600560205260409020546001600160a01b03908116911614919050565b6001600160a01b03821661132357604051633250574960e11b815260006004820152602401610592565b6000611331838360006109e7565b90506001600160a01b03811615610685576040517f73c6ac6e00000000000000000000000000000000000000000000000000000000815260006004820152602401610592565b6000807a184f03e93ff9f4daa797ed6e38ed64bf6a1f01000000000000000083106113c0577a184f03e93ff9f4daa797ed6e38ed64bf6a1f010000000000000000830492506040015b6d04ee2d6d415b85acef810000000083106113ec576d04ee2d6d415b85acef8100000000830492506020015b662386f26fc10000831061140a57662386f26fc10000830492506010015b6305f5e1008310611422576305f5e100830492506008015b612710831061143657612710830492506004015b60648310611448576064830492506002015b600a831061095b5760010192915050565b6001600160e01b03198116811461092357600080fd5b60006020828403121561148157600080fd5b8135610ec781611459565b60005b838110156114a757818101518382015260200161148f565b50506000910152565b600081518084526114c881602086016020860161148c565b601f01601f19169290920160200192915050565b602081526000610ec760208301846114b0565b60006020828403121561150157600080fd5b5035919050565b80356001600160a01b038116811461095e57600080fd5b6000806040838503121561153257600080fd5b61153b83611508565b946020939093013593505050565b60008060006060848603121561155e57600080fd5b61156784611508565b925061157560208501611508565b9150604084013590509250925092565b6000806040838503121561159857600080fd5b50508035926020909101359150565b6000602082840312156115b957600080fd5b610ec782611508565b634e487b7160e01b600052604160045260246000fd5b604051601f8201601f1916810167ffffffffffffffff81118282101715611601576116016115c2565b604052919050565b6000602080838503121561161c57600080fd5b823567ffffffffffffffff8082111561163457600080fd5b818501915085601f83011261164857600080fd5b81358181111561165a5761165a6115c2565b8060051b915061166b8483016115d8565b818152918301840191848101908884111561168557600080fd5b938501935b838510156116aa5761169b85611508565b8252938501939085019061168a565b98975050505050505050565b600080604083850312156116c957600080fd5b6116d283611508565b9150602083013580151581146116e757600080fd5b809150509250929050565b600067ffffffffffffffff83111561170c5761170c6115c2565b61171f601f8401601f19166020016115d8565b905082815283838301111561173357600080fd5b828260208301376000602084830101529392505050565b6000806000806080858703121561176057600080fd5b61176985611508565b935061177760208601611508565b925060408501359150606085013567ffffffffffffffff81111561179a57600080fd5b8501601f810187136117ab57600080fd5b6117ba878235602084016116f2565b91505092959194509250565b600080604083850312156117d957600080fd5b6117e283611508565b91506117f060208401611508565b90509250929050565b60006020828403121561180b57600080fd5b813567ffffffffffffffff81111561182257600080fd5b8201601f8101841361183357600080fd5b6108c7848235602084016116f2565b600181811c9082168061185657607f821691505b60208210810361187657634e487b7160e01b600052602260045260246000fd5b50919050565b634e487b7160e01b600052601160045260246000fd5b808202811582820484141761049c5761049c61187c565b6000826118c657634e487b7160e01b600052601260045260246000fd5b500490565b634e487b7160e01b600052603260045260246000fd5b6000600182016118f3576118f361187c565b5060010190565b6000835161190c81846020880161148c565b83519083019061192081836020880161148c565b01949350505050565b60006001600160a01b0380871683528086166020840152508360408301526080606083015261195b60808301846114b0565b9695505050505050565b60006020828403121561197757600080fd5b8151610ec781611459565b601f82111561068557600081815260208120601f850160051c810160208610156119a95750805b601f850160051c820191505b818110156119c8578281556001016119b5565b505050505050565b815167ffffffffffffffff8111156119ea576119ea6115c2565b6119fe816119f88454611842565b84611982565b602080601f831160018114611a335760008415611a1b5750858301515b600019600386901b1c1916600185901b1785556119c8565b600085815260208120601f198616915b82811015611a6257888601518255948401946001909101908401611a43565b5085821015611a805787850151600019600388901b60f8161c191681555b5050505050600190811b0190555056fea2646970667358221220ed274f431c66be65a7eaac157ec8efcf8f464769774bfc8f773160880859fe4364736f6c63430008140033",
  "linkReferences": {},
  "deployedLinkReferences": {}
}