{
  "_format": "hh-sol-artifact-1",
  "contractName": "ArtworkERC1155NFT",
  "sourceName": "contracts/ArtworkERC1155NFT.sol",
  "abi": [
    {
      "inputs": [
        {
          "internalType": "string",
          "name": "uri",
          "type": "string"
        },
        {
          "internalType": "address",
          "name": "artist",
          "type": "address"
        }
      ],
      "stateMutability": "nonpayable",
      "type": "constructor"
    },
    {
      "inputs": [
        {
          "internalType": "address",
          "name": "sender",
          "type": "address"
        },
        {
          "internalType": "uint256",
          "name": "balance",
          "type": "uint256"
        },
        {
          "internalType": "uint256",
          "name": "needed",
          "type": "uint256"
        },
        {
          "internalType": "uint256",
          "name": "tokenId",
          "type": "uint256"
        }
      ],
      "name": "ERC1155InsufficientBalance",
      "type": "error"
    },
    {
      "inputs": [
        {
          "internalType": "address",
          "name": "approver",
          "type": "address"
        }
      ],
      "name": "ERC1155InvalidApprover",
      "type": "error"
    },
    {
      "inputs": [
        {
          "internalType": "uint256",
          "name": "idsLength",
          "type": "uint256"
        },
        {
          "internalType": "uint256",
          "name": "valuesLength",
          "type": "uint256"
        }
      ],
      "name": "ERC1155InvalidArrayLength",
      "type": "error"
    },
    {
      "inputs": [
        {
          "internalType": "address",
          "name": "operator",
          "type": "address"
        }
      ],
      "name": "ERC1155InvalidOperator",
      "type": "error"
    },
    {
      "inputs": [
        {
          "internalType": "address",
          "name": "receiver",
          "type": "address"
        }
      ],
      "name": "ERC1155InvalidReceiver",
      "type": "error"
    },
    {
      "inputs": [
        {
          "internalType": "address",
          "name": "sender",
          "type": "address"
        }
      ],
      "name": "ERC1155InvalidSender",
      "type": "error"
    },
    {
      "inputs": [
        {
          "internalType": "address",
          "name": "operator",
          "type": "address"
        },
        {
          "internalType": "address",
          "name": "owner",
          "type": "address"
        }
      ],
      "name": "ERC1155MissingApprovalForAll",
      "type": "error"
    },
    {
      "inputs": [
        {
          "internalType": "address",
          "name": "owner",
          "type": "address"
        }
      ],
      "name": "OwnableInvalidOwner",
      "type": "error"
    },
    {
      "inputs": [
        {
          "internalType": "address",
          "name": "account",
          "type": "address"
        }
      ],
      "name": "OwnableUnauthorizedAccount",
      "type": "error"
    },
    {
      "anonymous": false,
      "inputs": [
        {
          "indexed": true,
          "internalType": "address",
          "name": "account",
          "type": "address"
        },
        {
          "indexed": true,
          "internalType": "address",
          "name": "operator",
          "type": "address"
        },
        {
          "indexed": false,
          "internalType": "bool",
          "name": "approved",
          "type": "bool"
        }
      ],
      "name": "ApprovalForAll",
      "type": "event"
    },
    {
      "anonymous": false,
      "inputs": [
        {
          "indexed": true,
          "internalType": "address",
          "name": "previousOwner",
          "type": "address"
        },
        {
          "indexed": true,
          "internalType": "address",
          "name": "newOwner",
          "type": "address"
        }
      ],
      "name": "OwnershipTransferred",
      "type": "event"
    },
    {
      "anonymous": false,
      "inputs": [
        {
          "indexed": true,
          "internalType": "address",
          "name": "operator",
          "type": "address"
        },
        {
          "indexed": true,
          "internalType": "address",
          "name": "from",
          "type": "address"
        },
        {
          "indexed": true,
          "internalType": "address",
          "name": "to",
          "type": "address"
        },
        {
          "indexed": false,
          "internalType": "uint256[]",
          "name": "ids",
          "type": "uint256[]"
        },
        {
          "indexed": false,
          "internalType": "uint256[]",
          "name": "values",
          "type": "uint256[]"
        }
      ],
      "name": "TransferBatch",
      "type": "event"
    },
    {
      "anonymous": false,
      "inputs": [
        {
          "indexed": true,
          "internalType": "address",
          "name": "operator",
          "type": "address"
        },
        {
          "indexed": true,
          "internalType": "address",
          "name": "from",
          "type": "address"
        },
        {
          "indexed": true,
          "internalType": "address",
          "name": "to",
          "type": "address"
        },
        {
          "indexed": false,
          "internalType": "uint256",
          "name": "id",
          "type": "uint256"
        },
        {
          "indexed": false,
          "internalType": "uint256",
          "name": "value",
          "type": "uint256"
        }
      ],
      "name": "TransferSingle",
      "type": "event"
    },
    {
      "anonymous": false,
      "inputs": [
        {
          "indexed": false,
          "internalType": "string",
          "name": "value",
          "type": "string"
        },
        {
          "indexed": true,
          "internalType": "uint256",
          "name": "id",
          "type": "uint256"
        }
      ],
      "name": "URI",
      "type": "event"
    },
    {
      "inputs": [
        {
          "internalType": "address",
          "name": "account",
          "type": "address"
        },
        {
          "internalType": "uint256",
          "name": "id",
          "type": "uint256"
        }
      ],
      "name": "balanceOf",
      "outputs": [
        {
          "internalType": "uint256",
          "name": "",
          "type": "uint256"
        }
      ],
      "stateMutability": "view",
      "type": "function"
    },
    {
      "inputs": [
        {
          "internalType": "address[]",
          "name": "accounts",
          "type": "address[]"
        },
        {
          "internalType": "uint256[]",
          "name": "ids",
          "type": "uint256[]"
        }
      ],
      "name": "balanceOfBatch",
      "outputs": [
        {
          "internalType": "uint256[]",
          "name": "",
          "type": "uint256[]"
        }
      ],
      "stateMutability": "view",
      "type": "function"
    },
    {
      "inputs": [
        {
          "internalType": "address",
          "name": "account",
          "type": "address"
        },
        {
          "internalType": "address",
          "name": "operator",
          "type": "address"
        }
      ],
      "name": "isApprovedForAll",
      "outputs": [
        {
          "internalType": "bool",
          "name": "",
          "type": "bool"
        }
      ],
      "stateMutability": "view",
      "type": "function"
    },
    {
      "inputs": [
        {
          "internalType": "address",
          "name": "to",
          "type": "address"
        },
        {
          "internalType": "uint256[]",
          "name": "ids",
          "type": "uint256[]"
        },
        {
          "internalType": "uint256[]",
          "name": "amounts",
          "type": "uint256[]"
        },
        {
          "internalType": "address[]",
          "name": "royaltyRecipients",
          "type": "address[]"
        },
        {
          "internalType": "uint256[]",
          "name": "royaltyValues",
          "type": "uint256[]"
        }
      ],
      "name": "mintBatch",
      "outputs": [],
      "stateMutability": "nonpayable",
      "type": "function"
    },
    {
      "inputs": [
        {
          "internalType": "address",
          "name": "recipient",
          "type": "address"
        },
        {
          "internalType": "uint256",
          "name": "amount",
          "type": "uint256"
        },
        {
          "internalType": "bytes",
          "name": "data",
          "type": "bytes"
        }
      ],
      "name": "mintNFT",
      "outputs": [
        {
          "internalType": "uint256",
          "name": "",
          "type": "uint256"
        }
      ],
      "stateMutability": "nonpayable",
      "type": "function"
    },
    {
      "inputs": [],
      "name": "owner",
      "outputs": [
        {
          "internalType": "address",
          "name": "",
          "type": "address"
        }
      ],
      "stateMutability": "view",
      "type": "function"
    },
    {
      "inputs": [],
      "name": "renounceOwnership",
      "outputs": [],
      "stateMutability": "nonpayable",
      "type": "function"
    },
    {
      "inputs": [
        {
          "internalType": "uint256",
          "name": "tokenId",
          "type": "uint256"
        },
        {
          "internalType": "uint256",
          "name": "value",
          "type": "uint256"
        }
      ],
      "name": "royaltyInfo",
      "outputs": [
        {
          "internalType": "address",
          "name": "receiver",
          "type": "address"
        },
        {
          "internalType": "uint256",
          "name": "royaltyAmount",
          "type": "uint256"
        }
      ],
      "stateMutability": "view",
      "type": "function"
    },
    {
      "inputs": [
        {
          "internalType": "address",
          "name": "from",
          "type": "address"
        },
        {
          "internalType": "address",
          "name": "to",
          "type": "address"
        },
        {
          "internalType": "uint256[]",
          "name": "ids",
          "type": "uint256[]"
        },
        {
          "internalType": "uint256[]",
          "name": "values",
          "type": "uint256[]"
        },
        {
          "internalType": "bytes",
          "name": "data",
          "type": "bytes"
        }
      ],
      "name": "safeBatchTransferFrom",
      "outputs": [],
      "stateMutability": "nonpayable",
      "type": "function"
    },
    {
      "inputs": [
        {
          "internalType": "address",
          "name": "from",
          "type": "address"
        },
        {
          "internalType": "address",
          "name": "to",
          "type": "address"
        },
        {
          "internalType": "uint256",
          "name": "id",
          "type": "uint256"
        },
        {
          "internalType": "uint256",
          "name": "value",
          "type": "uint256"
        },
        {
          "internalType": "bytes",
          "name": "data",
          "type": "bytes"
        }
      ],
      "name": "safeTransferFrom",
      "outputs": [],
      "stateMutability": "nonpayable",
      "type": "function"
    },
    {
      "inputs": [
        {
          "internalType": "address",
          "name": "operator",
          "type": "address"
        },
        {
          "internalType": "bool",
          "name": "approved",
          "type": "bool"
        }
      ],
      "name": "setApprovalForAll",
      "outputs": [],
      "stateMutability": "nonpayable",
      "type": "function"
    },
    {
      "inputs": [
        {
          "internalType": "bytes4",
          "name": "interfaceId",
          "type": "bytes4"
        }
      ],
      "name": "supportsInterface",
      "outputs": [
        {
          "internalType": "bool",
          "name": "",
          "type": "bool"
        }
      ],
      "stateMutability": "view",
      "type": "function"
    },
    {
      "inputs": [],
      "name": "tokenCounter",
      "outputs": [
        {
          "internalType": "uint256",
          "name": "",
          "type": "uint256"
        }
      ],
      "stateMutability": "view",
      "type": "function"
    },
    {
      "inputs": [
        {
          "internalType": "address",
          "name": "newOwner",
          "type": "address"
        }
      ],
      "name": "transferOwnership",
      "outputs": [],
      "stateMutability": "nonpayable",
      "type": "function"
    },
    {
      "inputs": [
        {
          "internalType": "uint256",
          "name": "",
          "type": "uint256"
        }
      ],
      "name": "uri",
      "outputs": [
        {
          "internalType": "string",
          "name": "",
          "type": "string"
        }
      ],
      "stateMutability": "view",
      "type": "function"
    }
  ],
  "bytecode": "0x60806040523480156200001157600080fd5b5060405162001c6538038062001c658339810160408190526200003491620001a2565b3382620000418162000096565b506001600160a01b0381166200007257604051631e4fbdf760e01b8152600060048201526024015b60405180910390fd5b6200007d81620000a8565b5060006005556200008e81620000fa565b5050620003e5565b6002620000a4828262000319565b5050565b600380546001600160a01b038381166001600160a01b0319831681179093556040519116919082907f8be0079c531659141344cd1fd0a4f28419497f9722a3daafe3b4186f6b6457e090600090a35050565b620001046200013e565b6001600160a01b0381166200013057604051631e4fbdf760e01b81526000600482015260240162000069565b6200013b81620000a8565b50565b6003546001600160a01b031633146200016d5760405163118cdaa760e01b815233600482015260240162000069565b565b634e487b7160e01b600052604160045260246000fd5b80516001600160a01b03811681146200019d57600080fd5b919050565b60008060408385031215620001b657600080fd5b82516001600160401b0380821115620001ce57600080fd5b818501915085601f830112620001e357600080fd5b815181811115620001f857620001f86200016f565b604051601f8201601f19908116603f011681019083821181831017156200022357620002236200016f565b816040528281526020935088848487010111156200024057600080fd5b600091505b8282101562000264578482018401518183018501529083019062000245565b60008484830101528096505050506200027f81860162000185565b925050509250929050565b600181811c908216806200029f57607f821691505b602082108103620002c057634e487b7160e01b600052602260045260246000fd5b50919050565b601f8211156200031457600081815260208120601f850160051c81016020861015620002ef5750805b601f850160051c820191505b818110156200031057828155600101620002fb565b5050505b505050565b81516001600160401b038111156200033557620003356200016f565b6200034d816200034684546200028a565b84620002c6565b602080601f8311600181146200038557600084156200036c5750858301515b600019600386901b1c1916600185901b17855562000310565b600085815260208120601f198616915b82811015620003b65788860151825594840194600190910190840162000395565b5085821015620003d55787850151600019600388901b60f8161c191681555b5050505050600190811b01905550565b61187080620003f56000396000f3fe608060405234801561001057600080fd5b50600436106100f45760003560e01c8063715018a611610097578063d082e38111610066578063d082e38114610225578063e985e9c51461022e578063f242432a1461026a578063f2fde38b1461027d57600080fd5b8063715018a6146101dc57806389d6ad04146101e45780638da5cb5b146101f7578063a22cb4651461021257600080fd5b80632a55205a116100d35780632a55205a146101625780632eb2c2d61461019457806344b8f70c146101a95780634e1273f4146101bc57600080fd5b8062fdd58e146100f957806301ffc9a71461011f5780630e89341c14610142575b600080fd5b61010c61010736600461109a565b610290565b6040519081526020015b60405180910390f35b61013261012d3660046110da565b6102b8565b6040519015158152602001610116565b6101556101503660046110fe565b6102c3565b604051610116919061115d565b610175610170366004611170565b610357565b604080516001600160a01b039093168352602083019190915201610116565b6101a76101a23660046112d8565b6103b5565b005b6101a76101b73660046113e4565b610440565b6101cf6101ca366004611495565b610557565b604051610116919061152a565b6101a761062c565b61010c6101f236600461153d565b610640565b6003546040516001600160a01b039091168152602001610116565b6101a7610220366004611594565b61067a565b61010c60055481565b61013261023c3660046115d0565b6001600160a01b03918216600090815260016020908152604080832093909416825291909152205460ff1690565b6101a7610278366004611603565b610689565b6101a761028b366004611668565b610707565b6000818152602081815260408083206001600160a01b03861684529091529020545b92915050565b60006102b28261075e565b6060600280546102d290611683565b80601f01602080910402602001604051908101604052809291908181526020018280546102fe90611683565b801561034b5780601f106103205761010080835404028352916020019161034b565b820191906000526020600020905b81548152906001019060200180831161032e57829003601f168201915b50505050509050919050565b60008281526004602090815260408083208151808301909252546001600160a01b038116808352600160a01b90910462ffffff169282018390529291612710906103a190866116d3565b6103ab91906116ea565b9150509250929050565b336001600160a01b03861681148015906103f557506001600160a01b0380871660009081526001602090815260408083209385168352929052205460ff16155b1561042b5760405163711bec9160e11b81526001600160a01b038083166004830152871660248201526044015b60405180910390fd5b610438868686868661079c565b505050505050565b610448610803565b8151845114801561045a575080518451145b6104a65760405162461bcd60e51b815260206004820152601f60248201527f455243313135353a20417272617973206c656e677468206d69736d61746368006044820152606401610422565b6104c185858560405180602001604052806000815250610849565b60005b84518110156104385760008282815181106104e1576104e161170c565b60200260200101511115610545576105458582815181106105045761050461170c565b602002602001015184838151811061051e5761051e61170c565b60200260200101518484815181106105385761053861170c565b6020026020010151610887565b8061054f81611722565b9150506104c4565b606081518351146105885781518351604051635b05999160e01b815260048101929092526024820152604401610422565b6000835167ffffffffffffffff8111156105a4576105a4611192565b6040519080825280602002602001820160405280156105cd578160200160208202803683370190505b50905060005b8451811015610624576020808202860101516105f790602080840287010151610290565b8282815181106106095761060961170c565b602090810291909101015261061d81611722565b90506105d3565b509392505050565b610634610803565b61063e6000610948565b565b600061064a610803565b600554610659858286866109b2565b60016005600082825461066c919061173b565b909155509095945050505050565b610685338383610a0f565b5050565b336001600160a01b03861681148015906106c957506001600160a01b0380871660009081526001602090815260408083209385168352929052205460ff16155b156106fa5760405163711bec9160e11b81526001600160a01b03808316600483015287166024820152604401610422565b6104388686868686610abf565b61070f610803565b6001600160a01b038116610752576040517f1e4fbdf700000000000000000000000000000000000000000000000000000000815260006004820152602401610422565b61075b81610948565b50565b60006001600160e01b031982167f2a55205a0000000000000000000000000000000000000000000000000000000014806102b257506102b282610b4d565b6001600160a01b0384166107c657604051632bfa23e760e11b815260006004820152602401610422565b6001600160a01b0385166107ef57604051626a0d4560e21b815260006004820152602401610422565b6107fc8585858585610be8565b5050505050565b6003546001600160a01b0316331461063e576040517f118cdaa7000000000000000000000000000000000000000000000000000000008152336004820152602401610422565b6001600160a01b03841661087357604051632bfa23e760e11b815260006004820152602401610422565b610881600085858585610be8565b50505050565b6127108111156108d95760405162461bcd60e51b815260206004820152601a60248201527f45524332393831526f79616c746965733a20546f6f20686967680000000000006044820152606401610422565b6040805180820182526001600160a01b03938416815262ffffff928316602080830191825260009687526004905291909420935184549151909216600160a01b027fffffffffffffffffff00000000000000000000000000000000000000000000009091169190921617179055565b600380546001600160a01b038381167fffffffffffffffffffffffff0000000000000000000000000000000000000000831681179093556040519116919082907f8be0079c531659141344cd1fd0a4f28419497f9722a3daafe3b4186f6b6457e090600090a35050565b6001600160a01b0384166109dc57604051632bfa23e760e11b815260006004820152602401610422565b60408051600180825260208201869052818301908152606082018590526080820190925290610438600087848487610be8565b6001600160a01b038216610a52576040517fced3e10000000000000000000000000000000000000000000000000000000000815260006004820152602401610422565b6001600160a01b03838116600081815260016020908152604080832094871680845294825291829020805460ff191686151590811790915591519182527f17307eab39ab6107e8899845ad3d59bd9653f200f220920489ca2b5937696c31910160405180910390a3505050565b6001600160a01b038416610ae957604051632bfa23e760e11b815260006004820152602401610422565b6001600160a01b038516610b1257604051626a0d4560e21b815260006004820152602401610422565b60408051600180825260208201869052818301908152606082018590526080820190925290610b448787848487610be8565b50505050505050565b60006001600160e01b031982167fd9b67a26000000000000000000000000000000000000000000000000000000001480610bb057506001600160e01b031982167f0e89341c00000000000000000000000000000000000000000000000000000000145b806102b257507f01ffc9a7000000000000000000000000000000000000000000000000000000006001600160e01b03198316146102b2565b610bf485858585610c3b565b6001600160a01b038416156107fc5782513390600103610c2d5760208481015190840151610c26838989858589610e71565b5050610438565b610438818787878787610f95565b8051825114610c6a5781518151604051635b05999160e01b815260048101929092526024820152604401610422565b3360005b8351811015610d92576020818102858101820151908501909101516001600160a01b03881615610d3a576000828152602081815260408083206001600160a01b038c16845290915290205481811015610d13576040517f03dee4c50000000000000000000000000000000000000000000000000000000081526001600160a01b038a166004820152602481018290526044810183905260648101849052608401610422565b6000838152602081815260408083206001600160a01b038d16845290915290209082900390555b6001600160a01b03871615610d7f576000828152602081815260408083206001600160a01b038b16845290915281208054839290610d7990849061173b565b90915550505b505080610d8b90611722565b9050610c6e565b508251600103610e135760208301516000906020840151909150856001600160a01b0316876001600160a01b0316846001600160a01b03167fc3d58168c5ae7397731d063d5bbf3d657854427343f4c083240f7aacaa2d0f628585604051610e04929190918252602082015260400190565b60405180910390a450506107fc565b836001600160a01b0316856001600160a01b0316826001600160a01b03167f4a39dc06d4c0dbc64b70af90fd698a233a518aa5d07e595d983b8c0526c8f7fb8686604051610e6292919061174e565b60405180910390a45050505050565b6001600160a01b0384163b156104385760405163f23a6e6160e01b81526001600160a01b0385169063f23a6e6190610eb5908990899088908890889060040161177c565b6020604051808303816000875af1925050508015610ef0575060408051601f3d908101601f19168201909252610eed918101906117bf565b60015b610f59573d808015610f1e576040519150601f19603f3d011682016040523d82523d6000602084013e610f23565b606091505b508051600003610f5157604051632bfa23e760e11b81526001600160a01b0386166004820152602401610422565b805181602001fd5b6001600160e01b0319811663f23a6e6160e01b14610b4457604051632bfa23e760e11b81526001600160a01b0386166004820152602401610422565b6001600160a01b0384163b156104385760405163bc197c8160e01b81526001600160a01b0385169063bc197c8190610fd990899089908890889088906004016117dc565b6020604051808303816000875af1925050508015611014575060408051601f3d908101601f19168201909252611011918101906117bf565b60015b611042573d808015610f1e576040519150601f19603f3d011682016040523d82523d6000602084013e610f23565b6001600160e01b0319811663bc197c8160e01b14610b4457604051632bfa23e760e11b81526001600160a01b0386166004820152602401610422565b80356001600160a01b038116811461109557600080fd5b919050565b600080604083850312156110ad57600080fd5b6110b68361107e565b946020939093013593505050565b6001600160e01b03198116811461075b57600080fd5b6000602082840312156110ec57600080fd5b81356110f7816110c4565b9392505050565b60006020828403121561111057600080fd5b5035919050565b6000815180845260005b8181101561113d57602081850181015186830182015201611121565b506000602082860101526020601f19601f83011685010191505092915050565b6020815260006110f76020830184611117565b6000806040838503121561118357600080fd5b50508035926020909101359150565b634e487b7160e01b600052604160045260246000fd5b604051601f8201601f1916810167ffffffffffffffff811182821017156111d1576111d1611192565b604052919050565b600067ffffffffffffffff8211156111f3576111f3611192565b5060051b60200190565b600082601f83011261120e57600080fd5b8135602061122361121e836111d9565b6111a8565b82815260059290921b8401810191818101908684111561124257600080fd5b8286015b8481101561125d5780358352918301918301611246565b509695505050505050565b600082601f83011261127957600080fd5b813567ffffffffffffffff81111561129357611293611192565b6112a6601f8201601f19166020016111a8565b8181528460208386010111156112bb57600080fd5b816020850160208301376000918101602001919091529392505050565b600080600080600060a086880312156112f057600080fd5b6112f98661107e565b94506113076020870161107e565b9350604086013567ffffffffffffffff8082111561132457600080fd5b61133089838a016111fd565b9450606088013591508082111561134657600080fd5b61135289838a016111fd565b9350608088013591508082111561136857600080fd5b5061137588828901611268565b9150509295509295909350565b600082601f83011261139357600080fd5b813560206113a361121e836111d9565b82815260059290921b840181019181810190868411156113c257600080fd5b8286015b8481101561125d576113d78161107e565b83529183019183016113c6565b600080600080600060a086880312156113fc57600080fd5b6114058661107e565b9450602086013567ffffffffffffffff8082111561142257600080fd5b61142e89838a016111fd565b9550604088013591508082111561144457600080fd5b61145089838a016111fd565b9450606088013591508082111561146657600080fd5b61147289838a01611382565b9350608088013591508082111561148857600080fd5b50611375888289016111fd565b600080604083850312156114a857600080fd5b823567ffffffffffffffff808211156114c057600080fd5b6114cc86838701611382565b935060208501359150808211156114e257600080fd5b506103ab858286016111fd565b600081518084526020808501945080840160005b8381101561151f57815187529582019590820190600101611503565b509495945050505050565b6020815260006110f760208301846114ef565b60008060006060848603121561155257600080fd5b61155b8461107e565b925060208401359150604084013567ffffffffffffffff81111561157e57600080fd5b61158a86828701611268565b9150509250925092565b600080604083850312156115a757600080fd5b6115b08361107e565b9150602083013580151581146115c557600080fd5b809150509250929050565b600080604083850312156115e357600080fd5b6115ec8361107e565b91506115fa6020840161107e565b90509250929050565b600080600080600060a0868803121561161b57600080fd5b6116248661107e565b94506116326020870161107e565b93506040860135925060608601359150608086013567ffffffffffffffff81111561165c57600080fd5b61137588828901611268565b60006020828403121561167a57600080fd5b6110f78261107e565b600181811c9082168061169757607f821691505b6020821081036116b757634e487b7160e01b600052602260045260246000fd5b50919050565b634e487b7160e01b600052601160045260246000fd5b80820281158282048414176102b2576102b26116bd565b60008261170757634e487b7160e01b600052601260045260246000fd5b500490565b634e487b7160e01b600052603260045260246000fd5b600060018201611734576117346116bd565b5060010190565b808201808211156102b2576102b26116bd565b60408152600061176160408301856114ef565b828103602084015261177381856114ef565b95945050505050565b60006001600160a01b03808816835280871660208401525084604083015283606083015260a060808301526117b460a0830184611117565b979650505050505050565b6000602082840312156117d157600080fd5b81516110f7816110c4565b60006001600160a01b03808816835280871660208401525060a0604083015261180860a08301866114ef565b828103606084015261181a81866114ef565b9050828103608084015261182e8185611117565b9897505050505050505056fea2646970667358221220d4e0d0ebf46d93321fbf5e9e7e016b48b33fe4a619f9e7ce8417cca67bc2e69e64736f6c63430008140033",
  "linkReferences": {},
  "deployedLinkReferences": {}
}