{
  "_format": "hh-sol-artifact-1",
  "contractName": "NftMarketplace",
  "sourceName": "contracts/NFTMarketPlace.sol",
  "abi": [
    {
      "inputs": [
        {
          "internalType": "address",
          "name": "_registry",
          "type": "address"
        }
      ],
      "stateMutability": "nonpayable",
      "type": "constructor"
    },
    {
      "inputs": [
        {
          "internalType": "address",
          "name": "owner",
          "type": "address"
        }
      ],
      "name": "OwnableInvalidOwner",
      "type": "error"
    },
    {
      "inputs": [
        {
          "internalType": "address",
          "name": "account",
          "type": "address"
        }
      ],
      "name": "OwnableUnauthorizedAccount",
      "type": "error"
    },
    {
      "anonymous": false,
      "inputs": [
        {
          "indexed": true,
          "internalType": "address",
          "name": "creator",
          "type": "address"
        },
        {
          "indexed": false,
          "internalType": "address",
          "name": "nftContract",
          "type": "address"
        },
        {
          "indexed": false,
          "internalType": "string",
          "name": "name",
          "type": "string"
        }
      ],
      "name": "CollectionCreated",
      "type": "event"
    },
    {
      "anonymous": false,
      "inputs": [
        {
          "indexed": true,
          "internalType": "address",
          "name": "buyer",
          "type": "address"
        },
        {
          "indexed": true,
          "internalType": "address",
          "name": "nftContract",
          "type": "address"
        },
        {
          "indexed": true,
          "internalType": "uint256",
          "name": "tokenId",
          "type": "uint256"
        },
        {
          "indexed": false,
          "internalType": "uint256",
          "name": "amount",
          "type": "uint256"
        },
        {
          "indexed": false,
          "internalType": "uint256",
          "name": "price",
          "type": "uint256"
        }
      ],
      "name": "NFTBought",
      "type": "event"
    },
    {
      "anonymous": false,
      "inputs": [
        {
          "indexed": true,
          "internalType": "address",
          "name": "seller",
          "type": "address"
        },
        {
          "indexed": true,
          "internalType": "address",
          "name": "nftContract",
          "type": "address"
        },
        {
          "indexed": true,
          "internalType": "uint256",
          "name": "tokenId",
          "type": "uint256"
        },
        {
          "indexed": false,
          "internalType": "uint256",
          "name": "amount",
          "type": "uint256"
        },
        {
          "indexed": false,
          "internalType": "uint256",
          "name": "price",
          "type": "uint256"
        }
      ],
      "name": "NFTListed",
      "type": "event"
    },
    {
      "anonymous": false,
      "inputs": [
        {
          "indexed": true,
          "internalType": "address",
          "name": "seller",
          "type": "address"
        },
        {
          "indexed": true,
          "internalType": "address",
          "name": "nftContract",
          "type": "address"
        },
        {
          "indexed": true,
          "internalType": "uint256",
          "name": "tokenId",
          "type": "uint256"
        }
      ],
      "name": "NFTListingCancelled",
      "type": "event"
    },
    {
      "anonymous": false,
      "inputs": [
        {
          "indexed": true,
          "internalType": "address",
          "name": "nftContract",
          "type": "address"
        },
        {
          "indexed": false,
          "internalType": "uint256",
          "name": "tokenId",
          "type": "uint256"
        },
        {
          "indexed": true,
          "internalType": "address",
          "name": "to",
          "type": "address"
        },
        {
          "indexed": false,
          "internalType": "uint256",
          "name": "amount",
          "type": "uint256"
        }
      ],
      "name": "NFTMinted",
      "type": "event"
    },
    {
      "anonymous": false,
      "inputs": [
        {
          "indexed": true,
          "internalType": "address",
          "name": "previousOwner",
          "type": "address"
        },
        {
          "indexed": true,
          "internalType": "address",
          "name": "newOwner",
          "type": "address"
        }
      ],
      "name": "OwnershipTransferred",
      "type": "event"
    },
    {
      "inputs": [
        {
          "internalType": "address",
          "name": "nftContract",
          "type": "address"
        },
        {
          "internalType": "bool",
          "name": "isERC721",
          "type": "bool"
        }
      ],
      "name": "approveMarketplace",
      "outputs": [],
      "stateMutability": "nonpayable",
      "type": "function"
    },
    {
      "inputs": [
        {
          "internalType": "address",
          "name": "nftContract",
          "type": "address"
        },
        {
          "internalType": "uint256",
          "name": "tokenId",
          "type": "uint256"
        }
      ],
      "name": "buyNFT",
      "outputs": [],
      "stateMutability": "payable",
      "type": "function"
    },
    {
      "inputs": [
        {
          "internalType": "address",
          "name": "nftContract",
          "type": "address"
        },
        {
          "internalType": "uint256",
          "name": "tokenId",
          "type": "uint256"
        }
      ],
      "name": "cancelListing",
      "outputs": [],
      "stateMutability": "nonpayable",
      "type": "function"
    },
    {
      "inputs": [
        {
          "internalType": "address",
          "name": "",
          "type": "address"
        },
        {
          "internalType": "string",
          "name": "",
          "type": "string"
        }
      ],
      "name": "collections",
      "outputs": [
        {
          "internalType": "address",
          "name": "nftContract",
          "type": "address"
        },
        {
          "internalType": "string",
          "name": "name",
          "type": "string"
        }
      ],
      "stateMutability": "view",
      "type": "function"
    },
    {
      "inputs": [
        {
          "internalType": "string",
          "name": "nftTitle",
          "type": "string"
        },
        {
          "internalType": "string",
          "name": "symbol",
          "type": "string"
        },
        {
          "internalType": "string",
          "name": "uri",
          "type": "string"
        },
        {
          "internalType": "string",
          "name": "collectionName",
          "type": "string"
        },
        {
          "internalType": "bool",
          "name": "isERC721",
          "type": "bool"
        }
      ],
      "name": "createCollection",
      "outputs": [],
      "stateMutability": "nonpayable",
      "type": "function"
    },
    {
      "inputs": [
        {
          "internalType": "address",
          "name": "nftContract",
          "type": "address"
        },
        {
          "internalType": "uint256",
          "name": "tokenId",
          "type": "uint256"
        }
      ],
      "name": "getListing",
      "outputs": [
        {
          "components": [
            {
              "internalType": "address",
              "name": "seller",
              "type": "address"
            },
            {
              "internalType": "uint256",
              "name": "price",
              "type": "uint256"
            },
            {
              "internalType": "uint256",
              "name": "amount",
              "type": "uint256"
            }
          ],
          "internalType": "struct NftMarketplace.Listing",
          "name": "",
          "type": "tuple"
        }
      ],
      "stateMutability": "view",
      "type": "function"
    },
    {
      "inputs": [
        {
          "internalType": "address",
          "name": "nftContract",
          "type": "address"
        },
        {
          "internalType": "uint256",
          "name": "tokenId",
          "type": "uint256"
        },
        {
          "internalType": "uint256",
          "name": "amount",
          "type": "uint256"
        },
        {
          "internalType": "uint256",
          "name": "price",
          "type": "uint256"
        }
      ],
      "name": "listNFT",
      "outputs": [],
      "stateMutability": "nonpayable",
      "type": "function"
    },
    {
      "inputs": [
        {
          "internalType": "address",
          "name": "",
          "type": "address"
        },
        {
          "internalType": "uint256",
          "name": "",
          "type": "uint256"
        }
      ],
      "name": "listings",
      "outputs": [
        {
          "internalType": "address",
          "name": "seller",
          "type": "address"
        },
        {
          "internalType": "uint256",
          "name": "price",
          "type": "uint256"
        },
        {
          "internalType": "uint256",
          "name": "amount",
          "type": "uint256"
        }
      ],
      "stateMutability": "view",
      "type": "function"
    },
    {
      "inputs": [
        {
          "internalType": "string",
          "name": "collectionName",
          "type": "string"
        },
        {
          "internalType": "string",
          "name": "tokenURI",
          "type": "string"
        },
        {
          "internalType": "uint256",
          "name": "amount",
          "type": "uint256"
        },
        {
          "internalType": "bytes",
          "name": "data",
          "type": "bytes"
        },
        {
          "internalType": "bool",
          "name": "isERC721",
          "type": "bool"
        }
      ],
      "name": "mintNFT",
      "outputs": [],
      "stateMutability": "payable",
      "type": "function"
    },
    {
      "inputs": [
        {
          "internalType": "address",
          "name": "",
          "type": "address"
        },
        {
          "internalType": "address",
          "name": "",
          "type": "address"
        },
        {
          "internalType": "uint256[]",
          "name": "",
          "type": "uint256[]"
        },
        {
          "internalType": "uint256[]",
          "name": "",
          "type": "uint256[]"
        },
        {
          "internalType": "bytes",
          "name": "",
          "type": "bytes"
        }
      ],
      "name": "onERC1155BatchReceived",
      "outputs": [
        {
          "internalType": "bytes4",
          "name": "",
          "type": "bytes4"
        }
      ],
      "stateMutability": "nonpayable",
      "type": "function"
    },
    {
      "inputs": [
        {
          "internalType": "address",
          "name": "",
          "type": "address"
        },
        {
          "internalType": "address",
          "name": "",
          "type": "address"
        },
        {
          "internalType": "uint256",
          "name": "",
          "type": "uint256"
        },
        {
          "internalType": "uint256",
          "name": "",
          "type": "uint256"
        },
        {
          "internalType": "bytes",
          "name": "",
          "type": "bytes"
        }
      ],
      "name": "onERC1155Received",
      "outputs": [
        {
          "internalType": "bytes4",
          "name": "",
          "type": "bytes4"
        }
      ],
      "stateMutability": "nonpayable",
      "type": "function"
    },
    {
      "inputs": [
        {
          "internalType": "address",
          "name": "",
          "type": "address"
        },
        {
          "internalType": "address",
          "name": "",
          "type": "address"
        },
        {
          "internalType": "uint256",
          "name": "",
          "type": "uint256"
        },
        {
          "internalType": "bytes",
          "name": "",
          "type": "bytes"
        }
      ],
      "name": "onERC721Received",
      "outputs": [
        {
          "internalType": "bytes4",
          "name": "",
          "type": "bytes4"
        }
      ],
      "stateMutability": "nonpayable",
      "type": "function"
    },
    {
      "inputs": [],
      "name": "owner",
      "outputs": [
        {
          "internalType": "address",
          "name": "",
          "type": "address"
        }
      ],
      "stateMutability": "view",
      "type": "function"
    },
    {
      "inputs": [],
      "name": "registry",
      "outputs": [
        {
          "internalType": "contract ArtworksRegistry",
          "name": "",
          "type": "address"
        }
      ],
      "stateMutability": "view",
      "type": "function"
    },
    {
      "inputs": [],
      "name": "renounceOwnership",
      "outputs": [],
      "stateMutability": "nonpayable",
      "type": "function"
    },
    {
      "inputs": [
        {
          "internalType": "bytes4",
          "name": "interfaceId",
          "type": "bytes4"
        }
      ],
      "name": "supportsInterface",
      "outputs": [
        {
          "internalType": "bool",
          "name": "",
          "type": "bool"
        }
      ],
      "stateMutability": "view",
      "type": "function"
    },
    {
      "inputs": [
        {
          "internalType": "address",
          "name": "newOwner",
          "type": "address"
        }
      ],
      "name": "transferOwnership",
      "outputs": [],
      "stateMutability": "nonpayable",
      "type": "function"
    }
  ],
  "bytecode": "0x60806040523480156200001157600080fd5b5060405162005f4f38038062005f4f8339810160408190526200003491620000dd565b33806200005b57604051631e4fbdf760e01b81526000600482015260240160405180910390fd5b62000066816200008d565b50600180546001600160a01b0319166001600160a01b03929092169190911790556200010f565b600080546001600160a01b038381166001600160a01b0319831681178455604051919092169283917f8be0079c531659141344cd1fd0a4f28419497f9722a3daafe3b4186f6b6457e09190a35050565b600060208284031215620000f057600080fd5b81516001600160a01b03811681146200010857600080fd5b9392505050565b615e30806200011f6000396000f3fe608060405260043610620001235760003560e01c80638da5cb5b11620000b2578063bc197c81116200007d578063f217c54e1162000060578063f217c54e1462000420578063f23a6e611462000445578063f2fde38b146200048e57600080fd5b8063bc197c8114620003c0578063cf562eaf146200040957600080fd5b80638da5cb5b146200033f578063a82ba76f146200035f578063b2ddee061462000376578063bb4dc10a146200039b57600080fd5b80633c44a5f011620000f35780633c44a5f01462000274578063715018a6146200029b5780637b10399914620002b357806388700d1c14620002ee57600080fd5b806207df30146200012857806301ffc9a714620001a7578063150b7a0214620001dd57806335ef5ab8146200023f575b600080fd5b3480156200013557600080fd5b506200017d6200014736600462001963565b60036020908152600092835260408084209091529082529020805460018201546002909201546001600160a01b03909116919083565b604080516001600160a01b0390941684526020840192909252908201526060015b60405180910390f35b348015620001b457600080fd5b50620001cc620001c636600462001992565b620004b3565b60405190151581526020016200019e565b348015620001ea57600080fd5b5062000225620001fc36600462001a96565b7f150b7a0200000000000000000000000000000000000000000000000000000000949350505050565b6040516001600160e01b031990911681526020016200019e565b3480156200024c57600080fd5b50620002646200025e36600462001b0a565b62000504565b6040516200019e92919062001bb4565b3480156200028157600080fd5b50620002996200029336600462001be0565b620005d7565b005b348015620002a857600080fd5b506200029962000a4c565b348015620002c057600080fd5b50600154620002d5906001600160a01b031681565b6040516001600160a01b0390911681526020016200019e565b348015620002fb57600080fd5b50620003136200030d36600462001963565b62000a64565b6040805182516001600160a01b031681526020808401519082015291810151908201526060016200019e565b3480156200034c57600080fd5b506000546001600160a01b0316620002d5565b620002996200037036600462001963565b62000adf565b3480156200038357600080fd5b50620002996200039536600462001963565b62000e2b565b348015620003a857600080fd5b5062000299620003ba36600462001c2d565b62000f34565b348015620003cd57600080fd5b5062000225620003df36600462001cf4565b7fbc197c810000000000000000000000000000000000000000000000000000000095945050505050565b620002996200041a36600462001db0565b62000fd6565b3480156200042d57600080fd5b50620002996200043f36600462001e63565b620013de565b3480156200045257600080fd5b50620002256200046436600462001f04565b7ff23a6e610000000000000000000000000000000000000000000000000000000095945050505050565b3480156200049b57600080fd5b5062000299620004ad36600462001f75565b6200183c565b60006001600160e01b031982167f4e2312e0000000000000000000000000000000000000000000000000000000001480620004fe57506301ffc9a760e01b6001600160e01b03198316145b92915050565b60026020908152600092835260409092208151808301840180519281529084019290930191909120915280546001820180546001600160a01b0390921692916200054e9062001f95565b80601f01602080910402602001604051908101604052809291908181526020018280546200057c9062001f95565b8015620005cd5780601f10620005a157610100808354040283529160200191620005cd565b820191906000526020600020905b815481529060010190602001808311620005af57829003601f168201915b5050505050905082565b6040516301ffc9a760e01b81526380ac58cd60e01b60048201526001600160a01b038516906301ffc9a790602401602060405180830381865afa15801562000623573d6000803e3d6000fd5b505050506040513d601f19601f8201168201806040525081019062000649919062001fd1565b1562000810576040517f6352211e0000000000000000000000000000000000000000000000000000000081526004810184905233906001600160a01b03861690636352211e90602401602060405180830381865afa158015620006b0573d6000803e3d6000fd5b505050506040513d601f19601f82011682018060405250810190620006d6919062001ff1565b6001600160a01b031614620007325760405162461bcd60e51b815260206004820152600960248201527f4e6f74206f776e6572000000000000000000000000000000000000000000000060448201526064015b60405180910390fd5b6040517fe985e9c50000000000000000000000000000000000000000000000000000000081523360048201523060248201526001600160a01b0385169063e985e9c590604401602060405180830381865afa15801562000796573d6000803e3d6000fd5b505050506040513d601f19601f82011682018060405250810190620007bc919062001fd1565b6200080a5760405162461bcd60e51b815260206004820152600c60248201527f4e6f7420617070726f7665640000000000000000000000000000000000000000604482015260640162000729565b620009ac565b6040516301ffc9a760e01b8152636cdb3d1360e11b60048201526001600160a01b038516906301ffc9a790602401602060405180830381865afa1580156200085c573d6000803e3d6000fd5b505050506040513d601f19601f8201168201806040525081019062000882919062001fd1565b1562000963576040517efdd58e0000000000000000000000000000000000000000000000000000000081523360048201526024810184905282906001600160a01b0386169062fdd58e90604401602060405180830381865afa158015620008ed573d6000803e3d6000fd5b505050506040513d601f19601f8201168201806040525081019062000913919062002011565b1015620007325760405162461bcd60e51b815260206004820152601260248201527f4e6f7420656e6f7567682062616c616e63650000000000000000000000000000604482015260640162000729565b60405162461bcd60e51b815260206004820152601660248201527f556e737570706f7274656420746f6b656e207479706500000000000000000000604482015260640162000729565b604080516060810182523380825260208083018581528385018781526001600160a01b038a81166000818152600386528881208c82528652889020965187546001600160a01b03191692169190911786559151600186015551600290940193909355835186815290810185905286937f68eb44e4f5811045b1dff635024aa6dffafa88a68571f2b6f85cd2adb0799040910160405180910390a450505050565b62000a5662001899565b62000a626000620018e1565b565b62000a92604051806060016040528060006001600160a01b0316815260200160008152602001600081525090565b506001600160a01b03918216600090815260036020908152604080832093835292815290829020825160608101845281549094168452600181015491840191909152600201549082015290565b6001600160a01b03808316600090815260036020908152604080832085845282529182902082516060810184528154909416845260018101549184018290526002015491830191909152341462000b795760405162461bcd60e51b815260206004820152600f60248201527f496e636f72726563742076616c75650000000000000000000000000000000000604482015260640162000729565b6040516301ffc9a760e01b81526380ac58cd60e01b60048201526001600160a01b038416906301ffc9a790602401602060405180830381865afa15801562000bc5573d6000803e3d6000fd5b505050506040513d601f19601f8201168201806040525081019062000beb919062001fd1565b1562000c7e5780516040517f42842e0e0000000000000000000000000000000000000000000000000000000081526001600160a01b03918216600482015233602482015260448101849052908416906342842e0e906064015b600060405180830381600087803b15801562000c5f57600080fd5b505af115801562000c74573d6000803e3d6000fd5b5050505062000d69565b6040516301ffc9a760e01b8152636cdb3d1360e11b60048201526001600160a01b038416906301ffc9a790602401602060405180830381865afa15801562000cca573d6000803e3d6000fd5b505050506040513d601f19601f8201168201806040525081019062000cf0919062001fd1565b156200096357805160408083015190517ff242432a0000000000000000000000000000000000000000000000000000000081526001600160a01b03928316600482015233602482015260448101859052606481019190915260a06084820152600060a48201529084169063f242432a9060c40162000c44565b80516040516001600160a01b03909116903480156108fc02916000818181858888f1935050505015801562000da2573d6000803e3d6000fd5b506001600160a01b0383166000818152600360209081526040808320868452825280832080546001600160a01b03191681556001810184905560020192909255838201518482015183519182529181019190915284929133917f7a0a7460f8075212b07f19a9ab30b15d4d17c0984bfc2670bcd0430a46913d87910160405180910390a4505050565b6001600160a01b038083166000908152600360209081526040808320858452825291829020825160608101845281549094168085526001820154928501929092526002015491830191909152331462000ec75760405162461bcd60e51b815260206004820152600a60248201527f4e6f742073656c6c657200000000000000000000000000000000000000000000604482015260640162000729565b6001600160a01b038316600081815260036020908152604080832086845290915280822080546001600160a01b0319168155600181018390556002018290555184929133917e256b650a319009288934cc7635a7e01e26bb412bbaa839589e41b52c30e86e9190a4505050565b801562000fa25760405163a22cb46560e01b8152306004820152600160248201526001600160a01b0383169063a22cb465906044015b600060405180830381600087803b15801562000f8557600080fd5b505af115801562000f9a573d6000803e3d6000fd5b505050505050565b60405163a22cb46560e01b8152306004820152600160248201526001600160a01b0383169063a22cb4659060440162000f6a565b33600090815260026020526040808220905162000ff59088906200202b565b908152602001604051809103902090506000816001018054620010189062001f95565b905011620010695760405162461bcd60e51b815260206004820152601960248201527f436f6c6c656374696f6e20646f6573206e6f7420657869737400000000000000604482015260640162000729565b81156200122457805460408051638da5cb5b60e01b815290516001600160a01b03909216918291638da5cb5b9160048083019260209291908290030181865afa158015620010bb573d6000803e3d6000fd5b505050506040513d601f19601f82011682018060405250810190620010e1919062001ff1565b6001600160a01b0316336001600160a01b031614620011435760405162461bcd60e51b815260206004820152601e60248201527f4f6e6c7920636f6c6c656374696f6e206f776e65722063616e206d696e740000604482015260640162000729565b6040517ffb37e8830000000000000000000000000000000000000000000000000000000081526000906001600160a01b0383169063fb37e883906200118d908a9060040162002049565b6020604051808303816000875af1158015620011ad573d6000803e3d6000fd5b505050506040513d601f19601f82011682018060405250810190620011d3919062002011565b604080518281526001602082015291925033916001600160a01b038516917fdee49d32494469ed7b624022e005be821206f15e79b75177d7f4862fcb5eb342910160405180910390a3505062000f9a565b805460408051638da5cb5b60e01b815290516001600160a01b03909216918291638da5cb5b9160048083019260209291908290030181865afa1580156200126f573d6000803e3d6000fd5b505050506040513d601f19601f8201168201806040525081019062001295919062001ff1565b6001600160a01b0316336001600160a01b031614620012f75760405162461bcd60e51b815260206004820152601e60248201527f4f6e6c7920636f6c6c656374696f6e206f776e65722063616e206d696e740000604482015260640162000729565b6040517f89d6ad040000000000000000000000000000000000000000000000000000000081526000906001600160a01b038316906389d6ad0490620013459033908a908a906004016200205e565b6020604051808303816000875af115801562001365573d6000803e3d6000fd5b505050506040513d601f19601f820116820180604052508101906200138b919062002011565b604080518281526020810189905291925033916001600160a01b038516917fdee49d32494469ed7b624022e005be821206f15e79b75177d7f4862fcb5eb342910160405180910390a35050505050505050565b33600090815260026020526040908190209051620013fe9084906200202b565b908152602001604051809103902060010180546200141c9062001f95565b1590506200146d5760405162461bcd60e51b815260206004820152601160248201527f436f6c6c656374696f6e20657869737473000000000000000000000000000000604482015260640162000729565b6001546040517fb949c8040000000000000000000000000000000000000000000000000000000081523360048201526000916001600160a01b03169063b949c80490602401600060405180830381865afa158015620014d0573d6000803e3d6000fd5b505050506040513d6000823e601f3d908101601f19168201604052620014fa919081019062002091565b905060008151116200154f5760405162461bcd60e51b815260206004820152601560248201527f4e6f742072656769737465726564206172746973740000000000000000000000604482015260640162000729565b8115620016c9576000868633604051620015699062001931565b620015779392919062002108565b604051809103906000f08015801562001594573d6000803e3d6000fd5b506040805180820182526001600160a01b038316815260208082018890523360009081526002909152829020915192935091620015d39087906200202b565b90815260405160209181900382019020825181546001600160a01b0319166001600160a01b039091161781559082015160018201906200161490826200219a565b505060015460405163059dfe1360e01b81526001600160a01b03909116915063059dfe13906200164990879060040162002049565b600060405180830381600087803b1580156200166457600080fd5b505af115801562001679573d6000803e3d6000fd5b50505050336001600160a01b03167fa9a63cb75fdf6f638d49c249df7d5b94dd8bb8ac664ca12da7339862b9dd87ae8286604051620016ba92919062001bb4565b60405180910390a25062000f9a565b60008433604051620016db906200193f565b620016e892919062002267565b604051809103906000f08015801562001705573d6000803e3d6000fd5b506040805180820182526001600160a01b038316815260208082018890523360009081526002909152829020915192935091620017449087906200202b565b90815260405160209181900382019020825181546001600160a01b0319166001600160a01b039091161781559082015160018201906200178590826200219a565b505060015460405163059dfe1360e01b81526001600160a01b03909116915063059dfe1390620017ba90879060040162002049565b600060405180830381600087803b158015620017d557600080fd5b505af1158015620017ea573d6000803e3d6000fd5b50505050336001600160a01b03167fa9a63cb75fdf6f638d49c249df7d5b94dd8bb8ac664ca12da7339862b9dd87ae82866040516200182b92919062001bb4565b60405180910390a250505050505050565b6200184662001899565b6001600160a01b0381166200188b576040517f1e4fbdf70000000000000000000000000000000000000000000000000000000081526000600482015260240162000729565b6200189681620018e1565b50565b6000546001600160a01b0316331462000a62576040517f118cdaa700000000000000000000000000000000000000000000000000000000815233600482015260240162000729565b600080546001600160a01b038381166001600160a01b0319831681178455604051919092169283917f8be0079c531659141344cd1fd0a4f28419497f9722a3daafe3b4186f6b6457e09190a35050565b611f01806200229583390190565b611c65806200419683390190565b6001600160a01b03811681146200189657600080fd5b600080604083850312156200197757600080fd5b823562001984816200194d565b946020939093013593505050565b600060208284031215620019a557600080fd5b81356001600160e01b031981168114620019be57600080fd5b9392505050565b634e487b7160e01b600052604160045260246000fd5b604051601f8201601f1916810167ffffffffffffffff8111828210171562001a075762001a07620019c5565b604052919050565b600067ffffffffffffffff82111562001a2c5762001a2c620019c5565b50601f01601f191660200190565b600082601f83011262001a4c57600080fd5b813562001a6362001a5d8262001a0f565b620019db565b81815284602083860101111562001a7957600080fd5b816020850160208301376000918101602001919091529392505050565b6000806000806080858703121562001aad57600080fd5b843562001aba816200194d565b9350602085013562001acc816200194d565b925060408501359150606085013567ffffffffffffffff81111562001af057600080fd5b62001afe8782880162001a3a565b91505092959194509250565b6000806040838503121562001b1e57600080fd5b823562001b2b816200194d565b9150602083013567ffffffffffffffff81111562001b4857600080fd5b62001b568582860162001a3a565b9150509250929050565b60005b8381101562001b7d57818101518382015260200162001b63565b50506000910152565b6000815180845262001ba081602086016020860162001b60565b601f01601f19169290920160200192915050565b6001600160a01b038316815260406020820152600062001bd8604083018462001b86565b949350505050565b6000806000806080858703121562001bf757600080fd5b843562001c04816200194d565b966020860135965060408601359560600135945092505050565b80151581146200189657600080fd5b6000806040838503121562001c4157600080fd5b823562001c4e816200194d565b9150602083013562001c608162001c1e565b809150509250929050565b600082601f83011262001c7d57600080fd5b8135602067ffffffffffffffff82111562001c9c5762001c9c620019c5565b8160051b62001cad828201620019db565b928352848101820192828101908785111562001cc857600080fd5b83870192505b8483101562001ce95782358252918301919083019062001cce565b979650505050505050565b600080600080600060a0868803121562001d0d57600080fd5b853562001d1a816200194d565b9450602086013562001d2c816200194d565b9350604086013567ffffffffffffffff8082111562001d4a57600080fd5b62001d5889838a0162001c6b565b9450606088013591508082111562001d6f57600080fd5b62001d7d89838a0162001c6b565b9350608088013591508082111562001d9457600080fd5b5062001da38882890162001a3a565b9150509295509295909350565b600080600080600060a0868803121562001dc957600080fd5b853567ffffffffffffffff8082111562001de257600080fd5b62001df089838a0162001a3a565b9650602088013591508082111562001e0757600080fd5b62001e1589838a0162001a3a565b955060408801359450606088013591508082111562001e3357600080fd5b5062001e428882890162001a3a565b925050608086013562001e558162001c1e565b809150509295509295909350565b600080600080600060a0868803121562001e7c57600080fd5b853567ffffffffffffffff8082111562001e9557600080fd5b62001ea389838a0162001a3a565b9650602088013591508082111562001eba57600080fd5b62001ec889838a0162001a3a565b9550604088013591508082111562001edf57600080fd5b62001eed89838a0162001a3a565b9450606088013591508082111562001e3357600080fd5b600080600080600060a0868803121562001f1d57600080fd5b853562001f2a816200194d565b9450602086013562001f3c816200194d565b93506040860135925060608601359150608086013567ffffffffffffffff81111562001f6757600080fd5b62001da38882890162001a3a565b60006020828403121562001f8857600080fd5b8135620019be816200194d565b600181811c9082168062001faa57607f821691505b60208210810362001fcb57634e487b7160e01b600052602260045260246000fd5b50919050565b60006020828403121562001fe457600080fd5b8151620019be8162001c1e565b6000602082840312156200200457600080fd5b8151620019be816200194d565b6000602082840312156200202457600080fd5b5051919050565b600082516200203f81846020870162001b60565b9190910192915050565b602081526000620019be602083018462001b86565b6001600160a01b038416815282602082015260606040820152600062002088606083018462001b86565b95945050505050565b600060208284031215620020a457600080fd5b815167ffffffffffffffff811115620020bc57600080fd5b8201601f81018413620020ce57600080fd5b8051620020df62001a5d8262001a0f565b818152856020838501011115620020f557600080fd5b6200208882602083016020860162001b60565b6060815260006200211d606083018662001b86565b828103602084015262002131818662001b86565b9150506001600160a01b0383166040830152949350505050565b601f8211156200219557600081815260208120601f850160051c81016020861015620021745750805b601f850160051c820191505b8181101562000f9a5782815560010162002180565b505050565b815167ffffffffffffffff811115620021b757620021b7620019c5565b620021cf81620021c8845462001f95565b846200214b565b602080601f831160018114620022075760008415620021ee5750858301515b600019600386901b1c1916600185901b17855562000f9a565b600085815260208120601f198616915b82811015620022385788860151825594840194600190910190840162002217565b5085821015620022575787850151600019600388901b60f8161c191681555b5050505050600190811b01905550565b6040815260006200227c604083018562001b86565b90506001600160a01b0383166020830152939250505056fe60806040523480156200001157600080fd5b5060405162001f0138038062001f01833981016040819052620000349162000243565b828233806200005e57604051631e4fbdf760e01b8152600060048201526024015b60405180910390fd5b6200006981620000b9565b5060016200007883826200035f565b5060026200008782826200035f565b5050600a80546001600160a01b0319166001600160a01b03841617905550620000b08162000109565b5050506200042b565b600080546001600160a01b038381166001600160a01b0319831681178455604051919092169283917f8be0079c531659141344cd1fd0a4f28419497f9722a3daafe3b4186f6b6457e09190a35050565b620001136200014d565b6001600160a01b0381166200013f57604051631e4fbdf760e01b81526000600482015260240162000055565b6200014a81620000b9565b50565b6000546001600160a01b031633146200017c5760405163118cdaa760e01b815233600482015260240162000055565b565b634e487b7160e01b600052604160045260246000fd5b600082601f830112620001a657600080fd5b81516001600160401b0380821115620001c357620001c36200017e565b604051601f8301601f19908116603f01168101908282118183101715620001ee57620001ee6200017e565b816040528381526020925086838588010111156200020b57600080fd5b600091505b838210156200022f578582018301518183018401529082019062000210565b600093810190920192909252949350505050565b6000806000606084860312156200025957600080fd5b83516001600160401b03808211156200027157600080fd5b6200027f8783880162000194565b945060208601519150808211156200029657600080fd5b50620002a58682870162000194565b604086015190935090506001600160a01b0381168114620002c557600080fd5b809150509250925092565b600181811c90821680620002e557607f821691505b6020821081036200030657634e487b7160e01b600052602260045260246000fd5b50919050565b601f8211156200035a57600081815260208120601f850160051c81016020861015620003355750805b601f850160051c820191505b81811015620003565782815560010162000341565b5050505b505050565b81516001600160401b038111156200037b576200037b6200017e565b62000393816200038c8454620002d0565b846200030c565b602080601f831160018114620003cb5760008415620003b25750858301515b600019600386901b1c1916600185901b17855562000356565b600085815260208120601f198616915b82811015620003fc57888601518255948401946001909101908401620003db565b50858210156200041b5787850151600019600388901b60f8161c191681555b5050505050600190811b01905550565b611ac6806200043b6000396000f3fe6080604052600436106101755760003560e01c8063715018a6116100cb578063a22cb4651161007f578063e985e9c511610059578063e985e9c514610415578063f2fde38b1461045e578063fb37e8831461047e57600080fd5b8063a22cb465146103b5578063b88d4fde146103d5578063c87b56dd146103f557600080fd5b80638da5cb5b116100b05780638da5cb5b14610362578063927f59ba1461038057806395d89b41146103a057600080fd5b8063715018a61461032d5780638c7ea24b1461034257600080fd5b80632a55205a1161012d578063463b08db11610107578063463b08db146102ca5780636352211e146102ed57806370a082311461030d57600080fd5b80632a55205a1461024b57806342842e0e1461028a57806343bc1612146102aa57600080fd5b8063081812fc1161015e578063081812fc146101d1578063095ea7b31461020957806323b872dd1461022b57600080fd5b806301ffc9a71461017a57806306fdde03146101af575b600080fd5b34801561018657600080fd5b5061019a61019536600461146f565b610491565b60405190151581526020015b60405180910390f35b3480156101bb57600080fd5b506101c46104a2565b6040516101a691906114dc565b3480156101dd57600080fd5b506101f16101ec3660046114ef565b610534565b6040516001600160a01b0390911681526020016101a6565b34801561021557600080fd5b5061022961022436600461151f565b61055d565b005b34801561023757600080fd5b50610229610246366004611549565b61056c565b34801561025757600080fd5b5061026b610266366004611585565b610615565b604080516001600160a01b0390931683526020830191909152016101a6565b34801561029657600080fd5b506102296102a5366004611549565b61066a565b3480156102b657600080fd5b50600a546101f1906001600160a01b031681565b3480156102d657600080fd5b506102df601e81565b6040519081526020016101a6565b3480156102f957600080fd5b506101f16103083660046114ef565b61068a565b34801561031957600080fd5b506102df6103283660046115a7565b610695565b34801561033957600080fd5b506102296106f6565b34801561034e57600080fd5b5061022961035d36600461151f565b61070a565b34801561036e57600080fd5b506000546001600160a01b03166101f1565b34801561038c57600080fd5b5061022961039b366004611609565b61071c565b3480156103ac57600080fd5b506101c461078d565b3480156103c157600080fd5b506102296103d03660046116b6565b61079c565b3480156103e157600080fd5b506102296103f036600461174a565b6107a7565b34801561040157600080fd5b506101c46104103660046114ef565b6107be565b34801561042157600080fd5b5061019a6104303660046117c6565b6001600160a01b03918216600090815260066020908152604080832093909416825291909152205460ff1690565b34801561046a57600080fd5b506102296104793660046115a7565b6108cf565b6102df61048c3660046117f9565b610926565b600061049c82610963565b92915050565b6060600180546104b190611842565b80601f01602080910402602001604051908101604052809291908181526020018280546104dd90611842565b801561052a5780601f106104ff5761010080835404028352916020019161052a565b820191906000526020600020905b81548152906001019060200180831161050d57829003601f168201915b5050505050905090565b600061053f826109a1565b506000828152600560205260409020546001600160a01b031661049c565b6105688282336109da565b5050565b6001600160a01b03821661059b57604051633250574960e11b8152600060048201526024015b60405180910390fd5b60006105a88383336109e7565b9050836001600160a01b0316816001600160a01b03161461060f576040517f64283d7b0000000000000000000000000000000000000000000000000000000081526001600160a01b0380861660048301526024820184905282166044820152606401610592565b50505050565b604080518082019091526008546001600160a01b038116808352600160a01b90910462ffffff16602083018190529091600091612710906106569086611892565b61066091906118a9565b9150509250929050565b610685838383604051806020016040528060008152506107a7565b505050565b600061049c826109a1565b60006001600160a01b0382166106da576040517f89c62b6400000000000000000000000000000000000000000000000000000000815260006004820152602401610592565b506001600160a01b031660009081526004602052604090205490565b6106fe610aed565b6107086000610b33565b565b610712610aed565b6105688282610b90565b610724610aed565b60095460005b825181101561068557610756838281518110610748576107486118cb565b602002602001015183610c5e565b81610760816118e1565b600980549194509091506000610775836118e1565b91905055508080610785906118e1565b91505061072a565b6060600280546104b190611842565b610568338383610c78565b6107b284848461056c565b61060f84848484610d30565b60606107c9826109a1565b50600082815260076020526040812080546107e390611842565b80601f016020809104026020016040519081016040528092919081815260200182805461080f90611842565b801561085c5780601f106108315761010080835404028352916020019161085c565b820191906000526020600020905b81548152906001019060200180831161083f57829003601f168201915b50505050509050600061087a60408051602081019091526000815290565b9050805160000361088c575092915050565b8151156108be5780826040516020016108a69291906118fa565b60405160208183030381529060405292505050919050565b6108c784610e59565b949350505050565b6108d7610aed565b6001600160a01b03811661091a576040517f1e4fbdf700000000000000000000000000000000000000000000000000000000815260006004820152602401610592565b61092381610b33565b50565b6000610930610aed565b600980549081906000610942836118e1565b91905055506109513382610c5e565b61095b8184610ece565b90505b919050565b60006001600160e01b031982167f2a55205a00000000000000000000000000000000000000000000000000000000148061049c575061049c82610f1e565b6000818152600360205260408120546001600160a01b03168061095b57604051637e27328960e01b815260048101849052602401610592565b6106858383836001610f5c565b6000828152600360205260408120546001600160a01b0390811690831615610a1457610a148184866110a7565b6001600160a01b03811615610a5257610a31600085600080610f5c565b6001600160a01b038116600090815260046020526040902080546000190190555b6001600160a01b03851615610a81576001600160a01b0385166000908152600460205260409020805460010190555b600084815260036020526040808220805473ffffffffffffffffffffffffffffffffffffffff19166001600160a01b0389811691821790925591518793918516917fddf252ad1be2c89b69c2b068fc378daa952ba7f163c4a11628f55a4df523b3ef91a4949350505050565b6000546001600160a01b03163314610708576040517f118cdaa7000000000000000000000000000000000000000000000000000000008152336004820152602401610592565b600080546001600160a01b0383811673ffffffffffffffffffffffffffffffffffffffff19831681178455604051919092169283917f8be0079c531659141344cd1fd0a4f28419497f9722a3daafe3b4186f6b6457e09190a35050565b612710811115610bfc576040517f08c379a000000000000000000000000000000000000000000000000000000000815260206004820152601a60248201527f45524332393831526f79616c746965733a20546f6f20686967680000000000006044820152606401610592565b604080518082019091526001600160a01b0390921680835262ffffff909116602090920182905260088054600160a01b9093027fffffffffffffffffff0000000000000000000000000000000000000000000000909316909117919091179055565b610568828260405180602001604052806000815250611124565b6001600160a01b038216610cc3576040517f5b08ba180000000000000000000000000000000000000000000000000000000081526001600160a01b0383166004820152602401610592565b6001600160a01b03838116600081815260066020908152604080832094871680845294825291829020805460ff191686151590811790915591519182527f17307eab39ab6107e8899845ad3d59bd9653f200f220920489ca2b5937696c31910160405180910390a3505050565b6001600160a01b0383163b1561060f57604051630a85bd0160e11b81526001600160a01b0384169063150b7a0290610d72903390889087908790600401611929565b6020604051808303816000875af1925050508015610dad575060408051601f3d908101601f19168201909252610daa91810190611965565b60015b610e16573d808015610ddb576040519150601f19603f3d011682016040523d82523d6000602084013e610de0565b606091505b508051600003610e0e57604051633250574960e11b81526001600160a01b0385166004820152602401610592565b805181602001fd5b6001600160e01b03198116630a85bd0160e11b14610e5257604051633250574960e11b81526001600160a01b0385166004820152602401610592565b5050505050565b6060610e64826109a1565b506000610e7c60408051602081019091526000815290565b90506000815111610e9c5760405180602001604052806000815250610ec7565b80610ea68461113b565b604051602001610eb79291906118fa565b6040516020818303038152906040525b9392505050565b6000828152600760205260409020610ee682826119d0565b506040518281527ff8e1a15aba9398e019f0b49df1a4fde98ee17ae345cb5f6b5e2c27f5033e8ce79060200160405180910390a15050565b60006001600160e01b031982167f4906490600000000000000000000000000000000000000000000000000000000148061049c575061049c826111db565b8080610f7057506001600160a01b03821615155b1561106a576000610f80846109a1565b90506001600160a01b03831615801590610fac5750826001600160a01b0316816001600160a01b031614155b8015610fde57506001600160a01b0380821660009081526006602090815260408083209387168352929052205460ff16155b15611020576040517fa9fbf51f0000000000000000000000000000000000000000000000000000000081526001600160a01b0384166004820152602401610592565b81156110685783856001600160a01b0316826001600160a01b03167f8c5be1e5ebec7d5bd14f71427d1e84f3dd0314c0f7b2291e5b200ac8c7c3b92560405160405180910390a45b505b50506000908152600560205260409020805473ffffffffffffffffffffffffffffffffffffffff19166001600160a01b0392909216919091179055565b6110b2838383611276565b610685576001600160a01b0383166110e057604051637e27328960e01b815260048101829052602401610592565b6040517f177e802f0000000000000000000000000000000000000000000000000000000081526001600160a01b038316600482015260248101829052604401610592565b61112e83836112f9565b6106856000848484610d30565b6060600061114883611377565b600101905060008167ffffffffffffffff811115611168576111686115c2565b6040519080825280601f01601f191660200182016040528015611192576020820181803683370190505b5090508181016020015b600019017f3031323334353637383961626364656600000000000000000000000000000000600a86061a8153600a850494508461119c57509392505050565b60006001600160e01b031982167f80ac58cd00000000000000000000000000000000000000000000000000000000148061123e57506001600160e01b031982167f5b5e139f00000000000000000000000000000000000000000000000000000000145b8061049c57507f01ffc9a7000000000000000000000000000000000000000000000000000000006001600160e01b031983161461049c565b60006001600160a01b038316158015906108c75750826001600160a01b0316846001600160a01b031614806112d057506001600160a01b0380851660009081526006602090815260408083209387168352929052205460ff165b806108c75750506000908152600560205260409020546001600160a01b03908116911614919050565b6001600160a01b03821661132357604051633250574960e11b815260006004820152602401610592565b6000611331838360006109e7565b90506001600160a01b03811615610685576040517f73c6ac6e00000000000000000000000000000000000000000000000000000000815260006004820152602401610592565b6000807a184f03e93ff9f4daa797ed6e38ed64bf6a1f01000000000000000083106113c0577a184f03e93ff9f4daa797ed6e38ed64bf6a1f010000000000000000830492506040015b6d04ee2d6d415b85acef810000000083106113ec576d04ee2d6d415b85acef8100000000830492506020015b662386f26fc10000831061140a57662386f26fc10000830492506010015b6305f5e1008310611422576305f5e100830492506008015b612710831061143657612710830492506004015b60648310611448576064830492506002015b600a831061095b5760010192915050565b6001600160e01b03198116811461092357600080fd5b60006020828403121561148157600080fd5b8135610ec781611459565b60005b838110156114a757818101518382015260200161148f565b50506000910152565b600081518084526114c881602086016020860161148c565b601f01601f19169290920160200192915050565b602081526000610ec760208301846114b0565b60006020828403121561150157600080fd5b5035919050565b80356001600160a01b038116811461095e57600080fd5b6000806040838503121561153257600080fd5b61153b83611508565b946020939093013593505050565b60008060006060848603121561155e57600080fd5b61156784611508565b925061157560208501611508565b9150604084013590509250925092565b6000806040838503121561159857600080fd5b50508035926020909101359150565b6000602082840312156115b957600080fd5b610ec782611508565b634e487b7160e01b600052604160045260246000fd5b604051601f8201601f1916810167ffffffffffffffff81118282101715611601576116016115c2565b604052919050565b6000602080838503121561161c57600080fd5b823567ffffffffffffffff8082111561163457600080fd5b818501915085601f83011261164857600080fd5b81358181111561165a5761165a6115c2565b8060051b915061166b8483016115d8565b818152918301840191848101908884111561168557600080fd5b938501935b838510156116aa5761169b85611508565b8252938501939085019061168a565b98975050505050505050565b600080604083850312156116c957600080fd5b6116d283611508565b9150602083013580151581146116e757600080fd5b809150509250929050565b600067ffffffffffffffff83111561170c5761170c6115c2565b61171f601f8401601f19166020016115d8565b905082815283838301111561173357600080fd5b828260208301376000602084830101529392505050565b6000806000806080858703121561176057600080fd5b61176985611508565b935061177760208601611508565b925060408501359150606085013567ffffffffffffffff81111561179a57600080fd5b8501601f810187136117ab57600080fd5b6117ba878235602084016116f2565b91505092959194509250565b600080604083850312156117d957600080fd5b6117e283611508565b91506117f060208401611508565b90509250929050565b60006020828403121561180b57600080fd5b813567ffffffffffffffff81111561182257600080fd5b8201601f8101841361183357600080fd5b6108c7848235602084016116f2565b600181811c9082168061185657607f821691505b60208210810361187657634e487b7160e01b600052602260045260246000fd5b50919050565b634e487b7160e01b600052601160045260246000fd5b808202811582820484141761049c5761049c61187c565b6000826118c657634e487b7160e01b600052601260045260246000fd5b500490565b634e487b7160e01b600052603260045260246000fd5b6000600182016118f3576118f361187c565b5060010190565b6000835161190c81846020880161148c565b83519083019061192081836020880161148c565b01949350505050565b60006001600160a01b0380871683528086166020840152508360408301526080606083015261195b60808301846114b0565b9695505050505050565b60006020828403121561197757600080fd5b8151610ec781611459565b601f82111561068557600081815260208120601f850160051c810160208610156119a95750805b601f850160051c820191505b818110156119c8578281556001016119b5565b505050505050565b815167ffffffffffffffff8111156119ea576119ea6115c2565b6119fe816119f88454611842565b84611982565b602080601f831160018114611a335760008415611a1b5750858301515b600019600386901b1c1916600185901b1785556119c8565b600085815260208120601f198616915b82811015611a6257888601518255948401946001909101908401611a43565b5085821015611a805787850151600019600388901b60f8161c191681555b5050505050600190811b0190555056fea2646970667358221220ed274f431c66be65a7eaac157ec8efcf8f464769774bfc8f773160880859fe4364736f6c6343000814003360806040523480156200001157600080fd5b5060405162001c6538038062001c658339810160408190526200003491620001a2565b3382620000418162000096565b506001600160a01b0381166200007257604051631e4fbdf760e01b8152600060048201526024015b60405180910390fd5b6200007d81620000a8565b5060006005556200008e81620000fa565b5050620003e5565b6002620000a4828262000319565b5050565b600380546001600160a01b038381166001600160a01b0319831681179093556040519116919082907f8be0079c531659141344cd1fd0a4f28419497f9722a3daafe3b4186f6b6457e090600090a35050565b620001046200013e565b6001600160a01b0381166200013057604051631e4fbdf760e01b81526000600482015260240162000069565b6200013b81620000a8565b50565b6003546001600160a01b031633146200016d5760405163118cdaa760e01b815233600482015260240162000069565b565b634e487b7160e01b600052604160045260246000fd5b80516001600160a01b03811681146200019d57600080fd5b919050565b60008060408385031215620001b657600080fd5b82516001600160401b0380821115620001ce57600080fd5b818501915085601f830112620001e357600080fd5b815181811115620001f857620001f86200016f565b604051601f8201601f19908116603f011681019083821181831017156200022357620002236200016f565b816040528281526020935088848487010111156200024057600080fd5b600091505b8282101562000264578482018401518183018501529083019062000245565b60008484830101528096505050506200027f81860162000185565b925050509250929050565b600181811c908216806200029f57607f821691505b602082108103620002c057634e487b7160e01b600052602260045260246000fd5b50919050565b601f8211156200031457600081815260208120601f850160051c81016020861015620002ef5750805b601f850160051c820191505b818110156200031057828155600101620002fb565b5050505b505050565b81516001600160401b038111156200033557620003356200016f565b6200034d816200034684546200028a565b84620002c6565b602080601f8311600181146200038557600084156200036c5750858301515b600019600386901b1c1916600185901b17855562000310565b600085815260208120601f198616915b82811015620003b65788860151825594840194600190910190840162000395565b5085821015620003d55787850151600019600388901b60f8161c191681555b5050505050600190811b01905550565b61187080620003f56000396000f3fe608060405234801561001057600080fd5b50600436106100f45760003560e01c8063715018a611610097578063d082e38111610066578063d082e38114610225578063e985e9c51461022e578063f242432a1461026a578063f2fde38b1461027d57600080fd5b8063715018a6146101dc57806389d6ad04146101e45780638da5cb5b146101f7578063a22cb4651461021257600080fd5b80632a55205a116100d35780632a55205a146101625780632eb2c2d61461019457806344b8f70c146101a95780634e1273f4146101bc57600080fd5b8062fdd58e146100f957806301ffc9a71461011f5780630e89341c14610142575b600080fd5b61010c61010736600461109a565b610290565b6040519081526020015b60405180910390f35b61013261012d3660046110da565b6102b8565b6040519015158152602001610116565b6101556101503660046110fe565b6102c3565b604051610116919061115d565b610175610170366004611170565b610357565b604080516001600160a01b039093168352602083019190915201610116565b6101a76101a23660046112d8565b6103b5565b005b6101a76101b73660046113e4565b610440565b6101cf6101ca366004611495565b610557565b604051610116919061152a565b6101a761062c565b61010c6101f236600461153d565b610640565b6003546040516001600160a01b039091168152602001610116565b6101a7610220366004611594565b61067a565b61010c60055481565b61013261023c3660046115d0565b6001600160a01b03918216600090815260016020908152604080832093909416825291909152205460ff1690565b6101a7610278366004611603565b610689565b6101a761028b366004611668565b610707565b6000818152602081815260408083206001600160a01b03861684529091529020545b92915050565b60006102b28261075e565b6060600280546102d290611683565b80601f01602080910402602001604051908101604052809291908181526020018280546102fe90611683565b801561034b5780601f106103205761010080835404028352916020019161034b565b820191906000526020600020905b81548152906001019060200180831161032e57829003601f168201915b50505050509050919050565b60008281526004602090815260408083208151808301909252546001600160a01b038116808352600160a01b90910462ffffff169282018390529291612710906103a190866116d3565b6103ab91906116ea565b9150509250929050565b336001600160a01b03861681148015906103f557506001600160a01b0380871660009081526001602090815260408083209385168352929052205460ff16155b1561042b5760405163711bec9160e11b81526001600160a01b038083166004830152871660248201526044015b60405180910390fd5b610438868686868661079c565b505050505050565b610448610803565b8151845114801561045a575080518451145b6104a65760405162461bcd60e51b815260206004820152601f60248201527f455243313135353a20417272617973206c656e677468206d69736d61746368006044820152606401610422565b6104c185858560405180602001604052806000815250610849565b60005b84518110156104385760008282815181106104e1576104e161170c565b60200260200101511115610545576105458582815181106105045761050461170c565b602002602001015184838151811061051e5761051e61170c565b60200260200101518484815181106105385761053861170c565b6020026020010151610887565b8061054f81611722565b9150506104c4565b606081518351146105885781518351604051635b05999160e01b815260048101929092526024820152604401610422565b6000835167ffffffffffffffff8111156105a4576105a4611192565b6040519080825280602002602001820160405280156105cd578160200160208202803683370190505b50905060005b8451811015610624576020808202860101516105f790602080840287010151610290565b8282815181106106095761060961170c565b602090810291909101015261061d81611722565b90506105d3565b509392505050565b610634610803565b61063e6000610948565b565b600061064a610803565b600554610659858286866109b2565b60016005600082825461066c919061173b565b909155509095945050505050565b610685338383610a0f565b5050565b336001600160a01b03861681148015906106c957506001600160a01b0380871660009081526001602090815260408083209385168352929052205460ff16155b156106fa5760405163711bec9160e11b81526001600160a01b03808316600483015287166024820152604401610422565b6104388686868686610abf565b61070f610803565b6001600160a01b038116610752576040517f1e4fbdf700000000000000000000000000000000000000000000000000000000815260006004820152602401610422565b61075b81610948565b50565b60006001600160e01b031982167f2a55205a0000000000000000000000000000000000000000000000000000000014806102b257506102b282610b4d565b6001600160a01b0384166107c657604051632bfa23e760e11b815260006004820152602401610422565b6001600160a01b0385166107ef57604051626a0d4560e21b815260006004820152602401610422565b6107fc8585858585610be8565b5050505050565b6003546001600160a01b0316331461063e576040517f118cdaa7000000000000000000000000000000000000000000000000000000008152336004820152602401610422565b6001600160a01b03841661087357604051632bfa23e760e11b815260006004820152602401610422565b610881600085858585610be8565b50505050565b6127108111156108d95760405162461bcd60e51b815260206004820152601a60248201527f45524332393831526f79616c746965733a20546f6f20686967680000000000006044820152606401610422565b6040805180820182526001600160a01b03938416815262ffffff928316602080830191825260009687526004905291909420935184549151909216600160a01b027fffffffffffffffffff00000000000000000000000000000000000000000000009091169190921617179055565b600380546001600160a01b038381167fffffffffffffffffffffffff0000000000000000000000000000000000000000831681179093556040519116919082907f8be0079c531659141344cd1fd0a4f28419497f9722a3daafe3b4186f6b6457e090600090a35050565b6001600160a01b0384166109dc57604051632bfa23e760e11b815260006004820152602401610422565b60408051600180825260208201869052818301908152606082018590526080820190925290610438600087848487610be8565b6001600160a01b038216610a52576040517fced3e10000000000000000000000000000000000000000000000000000000000815260006004820152602401610422565b6001600160a01b03838116600081815260016020908152604080832094871680845294825291829020805460ff191686151590811790915591519182527f17307eab39ab6107e8899845ad3d59bd9653f200f220920489ca2b5937696c31910160405180910390a3505050565b6001600160a01b038416610ae957604051632bfa23e760e11b815260006004820152602401610422565b6001600160a01b038516610b1257604051626a0d4560e21b815260006004820152602401610422565b60408051600180825260208201869052818301908152606082018590526080820190925290610b448787848487610be8565b50505050505050565b60006001600160e01b031982167fd9b67a26000000000000000000000000000000000000000000000000000000001480610bb057506001600160e01b031982167f0e89341c00000000000000000000000000000000000000000000000000000000145b806102b257507f01ffc9a7000000000000000000000000000000000000000000000000000000006001600160e01b03198316146102b2565b610bf485858585610c3b565b6001600160a01b038416156107fc5782513390600103610c2d5760208481015190840151610c26838989858589610e71565b5050610438565b610438818787878787610f95565b8051825114610c6a5781518151604051635b05999160e01b815260048101929092526024820152604401610422565b3360005b8351811015610d92576020818102858101820151908501909101516001600160a01b03881615610d3a576000828152602081815260408083206001600160a01b038c16845290915290205481811015610d13576040517f03dee4c50000000000000000000000000000000000000000000000000000000081526001600160a01b038a166004820152602481018290526044810183905260648101849052608401610422565b6000838152602081815260408083206001600160a01b038d16845290915290209082900390555b6001600160a01b03871615610d7f576000828152602081815260408083206001600160a01b038b16845290915281208054839290610d7990849061173b565b90915550505b505080610d8b90611722565b9050610c6e565b508251600103610e135760208301516000906020840151909150856001600160a01b0316876001600160a01b0316846001600160a01b03167fc3d58168c5ae7397731d063d5bbf3d657854427343f4c083240f7aacaa2d0f628585604051610e04929190918252602082015260400190565b60405180910390a450506107fc565b836001600160a01b0316856001600160a01b0316826001600160a01b03167f4a39dc06d4c0dbc64b70af90fd698a233a518aa5d07e595d983b8c0526c8f7fb8686604051610e6292919061174e565b60405180910390a45050505050565b6001600160a01b0384163b156104385760405163f23a6e6160e01b81526001600160a01b0385169063f23a6e6190610eb5908990899088908890889060040161177c565b6020604051808303816000875af1925050508015610ef0575060408051601f3d908101601f19168201909252610eed918101906117bf565b60015b610f59573d808015610f1e576040519150601f19603f3d011682016040523d82523d6000602084013e610f23565b606091505b508051600003610f5157604051632bfa23e760e11b81526001600160a01b0386166004820152602401610422565b805181602001fd5b6001600160e01b0319811663f23a6e6160e01b14610b4457604051632bfa23e760e11b81526001600160a01b0386166004820152602401610422565b6001600160a01b0384163b156104385760405163bc197c8160e01b81526001600160a01b0385169063bc197c8190610fd990899089908890889088906004016117dc565b6020604051808303816000875af1925050508015611014575060408051601f3d908101601f19168201909252611011918101906117bf565b60015b611042573d808015610f1e576040519150601f19603f3d011682016040523d82523d6000602084013e610f23565b6001600160e01b0319811663bc197c8160e01b14610b4457604051632bfa23e760e11b81526001600160a01b0386166004820152602401610422565b80356001600160a01b038116811461109557600080fd5b919050565b600080604083850312156110ad57600080fd5b6110b68361107e565b946020939093013593505050565b6001600160e01b03198116811461075b57600080fd5b6000602082840312156110ec57600080fd5b81356110f7816110c4565b9392505050565b60006020828403121561111057600080fd5b5035919050565b6000815180845260005b8181101561113d57602081850181015186830182015201611121565b506000602082860101526020601f19601f83011685010191505092915050565b6020815260006110f76020830184611117565b6000806040838503121561118357600080fd5b50508035926020909101359150565b634e487b7160e01b600052604160045260246000fd5b604051601f8201601f1916810167ffffffffffffffff811182821017156111d1576111d1611192565b604052919050565b600067ffffffffffffffff8211156111f3576111f3611192565b5060051b60200190565b600082601f83011261120e57600080fd5b8135602061122361121e836111d9565b6111a8565b82815260059290921b8401810191818101908684111561124257600080fd5b8286015b8481101561125d5780358352918301918301611246565b509695505050505050565b600082601f83011261127957600080fd5b813567ffffffffffffffff81111561129357611293611192565b6112a6601f8201601f19166020016111a8565b8181528460208386010111156112bb57600080fd5b816020850160208301376000918101602001919091529392505050565b600080600080600060a086880312156112f057600080fd5b6112f98661107e565b94506113076020870161107e565b9350604086013567ffffffffffffffff8082111561132457600080fd5b61133089838a016111fd565b9450606088013591508082111561134657600080fd5b61135289838a016111fd565b9350608088013591508082111561136857600080fd5b5061137588828901611268565b9150509295509295909350565b600082601f83011261139357600080fd5b813560206113a361121e836111d9565b82815260059290921b840181019181810190868411156113c257600080fd5b8286015b8481101561125d576113d78161107e565b83529183019183016113c6565b600080600080600060a086880312156113fc57600080fd5b6114058661107e565b9450602086013567ffffffffffffffff8082111561142257600080fd5b61142e89838a016111fd565b9550604088013591508082111561144457600080fd5b61145089838a016111fd565b9450606088013591508082111561146657600080fd5b61147289838a01611382565b9350608088013591508082111561148857600080fd5b50611375888289016111fd565b600080604083850312156114a857600080fd5b823567ffffffffffffffff808211156114c057600080fd5b6114cc86838701611382565b935060208501359150808211156114e257600080fd5b506103ab858286016111fd565b600081518084526020808501945080840160005b8381101561151f57815187529582019590820190600101611503565b509495945050505050565b6020815260006110f760208301846114ef565b60008060006060848603121561155257600080fd5b61155b8461107e565b925060208401359150604084013567ffffffffffffffff81111561157e57600080fd5b61158a86828701611268565b9150509250925092565b600080604083850312156115a757600080fd5b6115b08361107e565b9150602083013580151581146115c557600080fd5b809150509250929050565b600080604083850312156115e357600080fd5b6115ec8361107e565b91506115fa6020840161107e565b90509250929050565b600080600080600060a0868803121561161b57600080fd5b6116248661107e565b94506116326020870161107e565b93506040860135925060608601359150608086013567ffffffffffffffff81111561165c57600080fd5b61137588828901611268565b60006020828403121561167a57600080fd5b6110f78261107e565b600181811c9082168061169757607f821691505b6020821081036116b757634e487b7160e01b600052602260045260246000fd5b50919050565b634e487b7160e01b600052601160045260246000fd5b80820281158282048414176102b2576102b26116bd565b60008261170757634e487b7160e01b600052601260045260246000fd5b500490565b634e487b7160e01b600052603260045260246000fd5b600060018201611734576117346116bd565b5060010190565b808201808211156102b2576102b26116bd565b60408152600061176160408301856114ef565b828103602084015261177381856114ef565b95945050505050565b60006001600160a01b03808816835280871660208401525084604083015283606083015260a060808301526117b460a0830184611117565b979650505050505050565b6000602082840312156117d157600080fd5b81516110f7816110c4565b60006001600160a01b03808816835280871660208401525060a0604083015261180860a08301866114ef565b828103606084015261181a81866114ef565b9050828103608084015261182e8185611117565b9897505050505050505056fea2646970667358221220d4e0d0ebf46d93321fbf5e9e7e016b48b33fe4a619f9e7ce8417cca67bc2e69e64736f6c63430008140033a2646970667358221220b29f05e0ef5eebd69d9832e6c011b7b46a0a7dc06d3d885bf7655ac7c65faddb64736f6c63430008140033",
  "linkReferences": {},
  "deployedLinkReferences": {}
}